{
  "contractName": "CookieToken",
  "abi": [
    {
      "inputs": [],
      "stateMutability": "nonpayable",
      "type": "constructor"
    },
    {
      "anonymous": false,
      "inputs": [
        {
          "indexed": true,
          "internalType": "address",
          "name": "owner",
          "type": "address"
        },
        {
          "indexed": true,
          "internalType": "address",
          "name": "spender",
          "type": "address"
        },
        {
          "indexed": false,
          "internalType": "uint256",
          "name": "value",
          "type": "uint256"
        }
      ],
      "name": "Approval",
      "type": "event"
    },
    {
      "anonymous": false,
      "inputs": [
        {
          "indexed": true,
          "internalType": "address",
          "name": "from",
          "type": "address"
        },
        {
          "indexed": true,
          "internalType": "address",
          "name": "to",
          "type": "address"
        },
        {
          "indexed": false,
          "internalType": "uint256",
          "name": "value",
          "type": "uint256"
        }
      ],
      "name": "Transfer",
      "type": "event"
    },
    {
      "inputs": [],
      "name": "_name",
      "outputs": [
        {
          "internalType": "string",
          "name": "",
          "type": "string"
        }
      ],
      "stateMutability": "view",
      "type": "function",
      "constant": true
    },
    {
      "inputs": [],
      "name": "_symbol",
      "outputs": [
        {
          "internalType": "string",
          "name": "",
          "type": "string"
        }
      ],
      "stateMutability": "view",
      "type": "function",
      "constant": true
    },
    {
      "inputs": [
        {
          "internalType": "address",
          "name": "owner",
          "type": "address"
        },
        {
          "internalType": "address",
          "name": "spender",
          "type": "address"
        }
      ],
      "name": "allowance",
      "outputs": [
        {
          "internalType": "uint256",
          "name": "",
          "type": "uint256"
        }
      ],
      "stateMutability": "view",
      "type": "function",
      "constant": true
    },
    {
      "inputs": [
        {
          "internalType": "address",
          "name": "spender",
          "type": "address"
        },
        {
          "internalType": "uint256",
          "name": "amount",
          "type": "uint256"
        }
      ],
      "name": "approve",
      "outputs": [
        {
          "internalType": "bool",
          "name": "",
          "type": "bool"
        }
      ],
      "stateMutability": "nonpayable",
      "type": "function"
    },
    {
      "inputs": [
        {
          "internalType": "address",
          "name": "account",
          "type": "address"
        }
      ],
      "name": "balanceOf",
      "outputs": [
        {
          "internalType": "uint256",
          "name": "",
          "type": "uint256"
        }
      ],
      "stateMutability": "view",
      "type": "function",
      "constant": true
    },
    {
      "inputs": [],
      "name": "decimals",
      "outputs": [
        {
          "internalType": "uint8",
          "name": "",
          "type": "uint8"
        }
      ],
      "stateMutability": "view",
      "type": "function",
      "constant": true
    },
    {
      "inputs": [
        {
          "internalType": "address",
          "name": "spender",
          "type": "address"
        },
        {
          "internalType": "uint256",
          "name": "subtractedValue",
          "type": "uint256"
        }
      ],
      "name": "decreaseAllowance",
      "outputs": [
        {
          "internalType": "bool",
          "name": "",
          "type": "bool"
        }
      ],
      "stateMutability": "nonpayable",
      "type": "function"
    },
    {
      "inputs": [
        {
          "internalType": "address",
          "name": "spender",
          "type": "address"
        },
        {
          "internalType": "uint256",
          "name": "addedValue",
          "type": "uint256"
        }
      ],
      "name": "increaseAllowance",
      "outputs": [
        {
          "internalType": "bool",
          "name": "",
          "type": "bool"
        }
      ],
      "stateMutability": "nonpayable",
      "type": "function"
    },
    {
      "inputs": [],
      "name": "name",
      "outputs": [
        {
          "internalType": "string",
          "name": "",
          "type": "string"
        }
      ],
      "stateMutability": "view",
      "type": "function",
      "constant": true
    },
    {
      "inputs": [],
      "name": "symbol",
      "outputs": [
        {
          "internalType": "string",
          "name": "",
          "type": "string"
        }
      ],
      "stateMutability": "view",
      "type": "function",
      "constant": true
    },
    {
      "inputs": [],
      "name": "totalSupply",
      "outputs": [
        {
          "internalType": "uint256",
          "name": "",
          "type": "uint256"
        }
      ],
      "stateMutability": "view",
      "type": "function",
      "constant": true
    },
    {
      "inputs": [
        {
          "internalType": "address",
          "name": "to",
          "type": "address"
        },
        {
          "internalType": "uint256",
          "name": "amount",
          "type": "uint256"
        }
      ],
      "name": "transfer",
      "outputs": [
        {
          "internalType": "bool",
          "name": "",
          "type": "bool"
        }
      ],
      "stateMutability": "nonpayable",
      "type": "function"
    },
    {
      "inputs": [
        {
          "internalType": "address",
          "name": "from",
          "type": "address"
        },
        {
          "internalType": "address",
          "name": "to",
          "type": "address"
        },
        {
          "internalType": "uint256",
          "name": "amount",
          "type": "uint256"
        }
      ],
      "name": "transferFrom",
      "outputs": [
        {
          "internalType": "bool",
          "name": "",
          "type": "bool"
        }
      ],
      "stateMutability": "nonpayable",
      "type": "function"
    },
    {
      "inputs": [
        {
          "internalType": "address",
          "name": "minter",
          "type": "address"
        },
        {
          "internalType": "uint256",
          "name": "amount",
          "type": "uint256"
        }
      ],
      "name": "mintEther",
      "outputs": [],
      "stateMutability": "payable",
      "type": "function",
      "payable": true
    },
    {
      "inputs": [
        {
          "internalType": "address",
          "name": "burner",
          "type": "address"
        },
        {
          "internalType": "uint256",
          "name": "amount",
          "type": "uint256"
        }
      ],
      "name": "tokenBurn",
      "outputs": [],
      "stateMutability": "nonpayable",
      "type": "function"
    }
  ],
  "bytecode": "0x60806040526040518060400160405280600b81526020017f436f6f6b6965546f6b656e000000000000000000000000000000000000000000815250600590816200004a9190620004a5565b506040518060400160405280600381526020017f43544b000000000000000000000000000000000000000000000000000000000081525060069081620000919190620004a5565b50620000a26200022260201b60201c565b600a620000b091906200071c565b612710620000bf91906200076d565b600755348015620000cf57600080fd5b5060058054620000df9062000294565b80601f01602080910402602001604051908101604052809291908181526020018280546200010d9062000294565b80156200015e5780601f1062000132576101008083540402835291602001916200015e565b820191906000526020600020905b8154815290600101906020018083116200014057829003601f168201915b505050505060068054620001729062000294565b80601f0160208091040260200160405190810160405280929190818152602001828054620001a09062000294565b8015620001f15780601f10620001c557610100808354040283529160200191620001f1565b820191906000526020600020905b815481529060010190602001808311620001d357829003601f168201915b50505050508160039081620002079190620004a5565b508060049081620002199190620004a5565b505050620007b8565b60006012905090565b600081519050919050565b7f4e487b7100000000000000000000000000000000000000000000000000000000600052604160045260246000fd5b7f4e487b7100000000000000000000000000000000000000000000000000000000600052602260045260246000fd5b60006002820490506001821680620002ad57607f821691505b602082108103620002c357620002c262000265565b5b50919050565b60008190508160005260206000209050919050565b60006020601f8301049050919050565b600082821b905092915050565b6000600883026200032d7fffffffffffffffffffffffffffffffffffffffffffffffffffffffffffffffff82620002ee565b620003398683620002ee565b95508019841693508086168417925050509392505050565b6000819050919050565b6000819050919050565b600062000386620003806200037a8462000351565b6200035b565b62000351565b9050919050565b6000819050919050565b620003a28362000365565b620003ba620003b1826200038d565b848454620002fb565b825550505050565b600090565b620003d1620003c2565b620003de81848462000397565b505050565b5b818110156200040657620003fa600082620003c7565b600181019050620003e4565b5050565b601f82111562000455576200041f81620002c9565b6200042a84620002de565b810160208510156200043a578190505b620004526200044985620002de565b830182620003e3565b50505b505050565b600082821c905092915050565b60006200047a600019846008026200045a565b1980831691505092915050565b600062000495838362000467565b9150826002028217905092915050565b620004b0826200022b565b67ffffffffffffffff811115620004cc57620004cb62000236565b5b620004d8825462000294565b620004e58282856200040a565b600060209050601f8311600181146200051d576000841562000508578287015190505b62000514858262000487565b86555062000584565b601f1984166200052d86620002c9565b60005b82811015620005575784890151825560018201915060208501945060208101905062000530565b8683101562000577578489015162000573601f89168262000467565b8355505b6001600288020188555050505b505050505050565b7f4e487b7100000000000000000000000000000000000000000000000000000000600052601160045260246000fd5b60008160011c9050919050565b6000808291508390505b60018511156200061a57808604811115620005f257620005f16200058c565b5b6001851615620006025780820291505b80810290506200061285620005bb565b9450620005d2565b94509492505050565b60008262000635576001905062000708565b8162000645576000905062000708565b81600181146200065e576002811462000669576200069f565b600191505062000708565b60ff8411156200067e576200067d6200058c565b5b8360020a9150848211156200069857620006976200058c565b5b5062000708565b5060208310610133831016604e8410600b8410161715620006d95782820a905083811115620006d357620006d26200058c565b5b62000708565b620006e88484846001620005c8565b925090508184048111156200070257620007016200058c565b5b81810290505b9392505050565b600060ff82169050919050565b6000620007298262000351565b915062000736836200070f565b9250620007657fffffffffffffffffffffffffffffffffffffffffffffffffffffffffffffffff848462000623565b905092915050565b60006200077a8262000351565b9150620007878362000351565b9250828202620007978162000351565b91508282048414831517620007b157620007b06200058c565b5b5092915050565b6119e880620007c86000396000f3fe6080604052600436106100e85760003560e01c806395d89b411161008a578063bb598fa311610059578063bb598fa314610332578063d28d88521461034e578063dd62ed3e14610379578063f88d7f31146103b6576100e8565b806395d89b4114610262578063a457c2d71461028d578063a9059cbb146102ca578063b09f126614610307576100e8565b806323b872dd116100c657806323b872dd14610180578063313ce567146101bd57806339509351146101e857806370a0823114610225576100e8565b806306fdde03146100ed578063095ea7b31461011857806318160ddd14610155575b600080fd5b3480156100f957600080fd5b506101026103df565b60405161010f9190611101565b60405180910390f35b34801561012457600080fd5b5061013f600480360381019061013a91906111bc565b610471565b60405161014c9190611217565b60405180910390f35b34801561016157600080fd5b5061016a610494565b6040516101779190611241565b60405180910390f35b34801561018c57600080fd5b506101a760048036038101906101a2919061125c565b61049e565b6040516101b49190611217565b60405180910390f35b3480156101c957600080fd5b506101d26104cd565b6040516101df91906112cb565b60405180910390f35b3480156101f457600080fd5b5061020f600480360381019061020a91906111bc565b6104d6565b60405161021c9190611217565b60405180910390f35b34801561023157600080fd5b5061024c600480360381019061024791906112e6565b61050d565b6040516102599190611241565b60405180910390f35b34801561026e57600080fd5b50610277610555565b6040516102849190611101565b60405180910390f35b34801561029957600080fd5b506102b460048036038101906102af91906111bc565b6105e7565b6040516102c19190611217565b60405180910390f35b3480156102d657600080fd5b506102f160048036038101906102ec91906111bc565b61065e565b6040516102fe9190611217565b60405180910390f35b34801561031357600080fd5b5061031c610681565b6040516103299190611101565b60405180910390f35b61034c600480360381019061034791906111bc565b61070f565b005b34801561035a57600080fd5b50610363610733565b6040516103709190611101565b60405180910390f35b34801561038557600080fd5b506103a0600480360381019061039b9190611313565b6107c1565b6040516103ad9190611241565b60405180910390f35b3480156103c257600080fd5b506103dd60048036038101906103d891906111bc565b610848565b005b6060600380546103ee90611382565b80601f016020809104026020016040519081016040528092919081815260200182805461041a90611382565b80156104675780601f1061043c57610100808354040283529160200191610467565b820191906000526020600020905b81548152906001019060200180831161044a57829003601f168201915b5050505050905090565b60008061047c610856565b905061048981858561085e565b600191505092915050565b6000600254905090565b6000806104a9610856565b90506104b6858285610a27565b6104c1858585610ab3565b60019150509392505050565b60006012905090565b6000806104e1610856565b90506105028185856104f385896107c1565b6104fd91906113e2565b61085e565b600191505092915050565b60008060008373ffffffffffffffffffffffffffffffffffffffff1673ffffffffffffffffffffffffffffffffffffffff168152602001908152602001600020549050919050565b60606004805461056490611382565b80601f016020809104026020016040519081016040528092919081815260200182805461059090611382565b80156105dd5780601f106105b2576101008083540402835291602001916105dd565b820191906000526020600020905b8154815290600101906020018083116105c057829003601f168201915b5050505050905090565b6000806105f2610856565b9050600061060082866107c1565b905083811015610645576040517f08c379a000000000000000000000000000000000000000000000000000000000815260040161063c90611488565b60405180910390fd5b610652828686840361085e565b60019250505092915050565b600080610669610856565b9050610676818585610ab3565b600191505092915050565b6006805461068e90611382565b80601f01602080910402602001604051908101604052809291908181526020018280546106ba90611382565b80156107075780601f106106dc57610100808354040283529160200191610707565b820191906000526020600020905b8154815290600101906020018083116106ea57829003601f168201915b505050505081565b60075461071a610494565b111561072557600080fd5b61072f8282610d32565b5050565b6005805461074090611382565b80601f016020809104026020016040519081016040528092919081815260200182805461076c90611382565b80156107b95780601f1061078e576101008083540402835291602001916107b9565b820191906000526020600020905b81548152906001019060200180831161079c57829003601f168201915b505050505081565b6000600160008473ffffffffffffffffffffffffffffffffffffffff1673ffffffffffffffffffffffffffffffffffffffff16815260200190815260200160002060008373ffffffffffffffffffffffffffffffffffffffff1673ffffffffffffffffffffffffffffffffffffffff16815260200190815260200160002054905092915050565b6108528282610e91565b5050565b600033905090565b600073ffffffffffffffffffffffffffffffffffffffff168373ffffffffffffffffffffffffffffffffffffffff16036108cd576040517f08c379a00000000000000000000000000000000000000000000000000000000081526004016108c49061151a565b60405180910390fd5b600073ffffffffffffffffffffffffffffffffffffffff168273ffffffffffffffffffffffffffffffffffffffff160361093c576040517f08c379a0000000000000000000000000000000000000000000000000000000008152600401610933906115ac565b60405180910390fd5b80600160008573ffffffffffffffffffffffffffffffffffffffff1673ffffffffffffffffffffffffffffffffffffffff16815260200190815260200160002060008473ffffffffffffffffffffffffffffffffffffffff1673ffffffffffffffffffffffffffffffffffffffff168152602001908152602001600020819055508173ffffffffffffffffffffffffffffffffffffffff168373ffffffffffffffffffffffffffffffffffffffff167f8c5be1e5ebec7d5bd14f71427d1e84f3dd0314c0f7b2291e5b200ac8c7c3b92583604051610a1a9190611241565b60405180910390a3505050565b6000610a3384846107c1565b90507fffffffffffffffffffffffffffffffffffffffffffffffffffffffffffffffff8114610aad5781811015610a9f576040517f08c379a0000000000000000000000000000000000000000000000000000000008152600401610a9690611618565b60405180910390fd5b610aac848484840361085e565b5b50505050565b600073ffffffffffffffffffffffffffffffffffffffff168373ffffffffffffffffffffffffffffffffffffffff1603610b22576040517f08c379a0000000000000000000000000000000000000000000000000000000008152600401610b19906116aa565b60405180910390fd5b600073ffffffffffffffffffffffffffffffffffffffff168273ffffffffffffffffffffffffffffffffffffffff1603610b91576040517f08c379a0000000000000000000000000000000000000000000000000000000008152600401610b889061173c565b60405180910390fd5b610b9c838383611067565b60008060008573ffffffffffffffffffffffffffffffffffffffff1673ffffffffffffffffffffffffffffffffffffffff16815260200190815260200160002054905081811015610c22576040517f08c379a0000000000000000000000000000000000000000000000000000000008152600401610c19906117ce565b60405180910390fd5b8181036000808673ffffffffffffffffffffffffffffffffffffffff1673ffffffffffffffffffffffffffffffffffffffff16815260200190815260200160002081905550816000808573ffffffffffffffffffffffffffffffffffffffff1673ffffffffffffffffffffffffffffffffffffffff1681526020019081526020016000206000828254610cb591906113e2565b925050819055508273ffffffffffffffffffffffffffffffffffffffff168473ffffffffffffffffffffffffffffffffffffffff167fddf252ad1be2c89b69c2b068fc378daa952ba7f163c4a11628f55a4df523b3ef84604051610d199190611241565b60405180910390a3610d2c84848461106c565b50505050565b600073ffffffffffffffffffffffffffffffffffffffff168273ffffffffffffffffffffffffffffffffffffffff1603610da1576040517f08c379a0000000000000000000000000000000000000000000000000000000008152600401610d989061183a565b60405180910390fd5b610dad60008383611067565b8060026000828254610dbf91906113e2565b92505081905550806000808473ffffffffffffffffffffffffffffffffffffffff1673ffffffffffffffffffffffffffffffffffffffff1681526020019081526020016000206000828254610e1491906113e2565b925050819055508173ffffffffffffffffffffffffffffffffffffffff16600073ffffffffffffffffffffffffffffffffffffffff167fddf252ad1be2c89b69c2b068fc378daa952ba7f163c4a11628f55a4df523b3ef83604051610e799190611241565b60405180910390a3610e8d6000838361106c565b5050565b600073ffffffffffffffffffffffffffffffffffffffff168273ffffffffffffffffffffffffffffffffffffffff1603610f00576040517f08c379a0000000000000000000000000000000000000000000000000000000008152600401610ef7906118cc565b60405180910390fd5b610f0c82600083611067565b60008060008473ffffffffffffffffffffffffffffffffffffffff1673ffffffffffffffffffffffffffffffffffffffff16815260200190815260200160002054905081811015610f92576040517f08c379a0000000000000000000000000000000000000000000000000000000008152600401610f899061195e565b60405180910390fd5b8181036000808573ffffffffffffffffffffffffffffffffffffffff1673ffffffffffffffffffffffffffffffffffffffff168152602001908152602001600020819055508160026000828254610fe9919061197e565b92505081905550600073ffffffffffffffffffffffffffffffffffffffff168373ffffffffffffffffffffffffffffffffffffffff167fddf252ad1be2c89b69c2b068fc378daa952ba7f163c4a11628f55a4df523b3ef8460405161104e9190611241565b60405180910390a36110628360008461106c565b505050565b505050565b505050565b600081519050919050565b600082825260208201905092915050565b60005b838110156110ab578082015181840152602081019050611090565b60008484015250505050565b6000601f19601f8301169050919050565b60006110d382611071565b6110dd818561107c565b93506110ed81856020860161108d565b6110f6816110b7565b840191505092915050565b6000602082019050818103600083015261111b81846110c8565b905092915050565b600080fd5b600073ffffffffffffffffffffffffffffffffffffffff82169050919050565b600061115382611128565b9050919050565b61116381611148565b811461116e57600080fd5b50565b6000813590506111808161115a565b92915050565b6000819050919050565b61119981611186565b81146111a457600080fd5b50565b6000813590506111b681611190565b92915050565b600080604083850312156111d3576111d2611123565b5b60006111e185828601611171565b92505060206111f2858286016111a7565b9150509250929050565b60008115159050919050565b611211816111fc565b82525050565b600060208201905061122c6000830184611208565b92915050565b61123b81611186565b82525050565b60006020820190506112566000830184611232565b92915050565b60008060006060848603121561127557611274611123565b5b600061128386828701611171565b935050602061129486828701611171565b92505060406112a5868287016111a7565b9150509250925092565b600060ff82169050919050565b6112c5816112af565b82525050565b60006020820190506112e060008301846112bc565b92915050565b6000602082840312156112fc576112fb611123565b5b600061130a84828501611171565b91505092915050565b6000806040838503121561132a57611329611123565b5b600061133885828601611171565b925050602061134985828601611171565b9150509250929050565b7f4e487b7100000000000000000000000000000000000000000000000000000000600052602260045260246000fd5b6000600282049050600182168061139a57607f821691505b6020821081036113ad576113ac611353565b5b50919050565b7f4e487b7100000000000000000000000000000000000000000000000000000000600052601160045260246000fd5b60006113ed82611186565b91506113f883611186565b92508282019050808211156114105761140f6113b3565b5b92915050565b7f45524332303a2064656372656173656420616c6c6f77616e63652062656c6f7760008201527f207a65726f000000000000000000000000000000000000000000000000000000602082015250565b600061147260258361107c565b915061147d82611416565b604082019050919050565b600060208201905081810360008301526114a181611465565b9050919050565b7f45524332303a20617070726f76652066726f6d20746865207a65726f2061646460008201527f7265737300000000000000000000000000000000000000000000000000000000602082015250565b600061150460248361107c565b915061150f826114a8565b604082019050919050565b60006020820190508181036000830152611533816114f7565b9050919050565b7f45524332303a20617070726f766520746f20746865207a65726f20616464726560008201527f7373000000000000000000000000000000000000000000000000000000000000602082015250565b600061159660228361107c565b91506115a18261153a565b604082019050919050565b600060208201905081810360008301526115c581611589565b9050919050565b7f45524332303a20696e73756666696369656e7420616c6c6f77616e6365000000600082015250565b6000611602601d8361107c565b915061160d826115cc565b602082019050919050565b60006020820190508181036000830152611631816115f5565b9050919050565b7f45524332303a207472616e736665722066726f6d20746865207a65726f20616460008201527f6472657373000000000000000000000000000000000000000000000000000000602082015250565b600061169460258361107c565b915061169f82611638565b604082019050919050565b600060208201905081810360008301526116c381611687565b9050919050565b7f45524332303a207472616e7366657220746f20746865207a65726f206164647260008201527f6573730000000000000000000000000000000000000000000000000000000000602082015250565b600061172660238361107c565b9150611731826116ca565b604082019050919050565b6000602082019050818103600083015261175581611719565b9050919050565b7f45524332303a207472616e7366657220616d6f756e742065786365656473206260008201527f616c616e63650000000000000000000000000000000000000000000000000000602082015250565b60006117b860268361107c565b91506117c38261175c565b604082019050919050565b600060208201905081810360008301526117e7816117ab565b9050919050565b7f45524332303a206d696e7420746f20746865207a65726f206164647265737300600082015250565b6000611824601f8361107c565b915061182f826117ee565b602082019050919050565b6000602082019050818103600083015261185381611817565b9050919050565b7f45524332303a206275726e2066726f6d20746865207a65726f2061646472657360008201527f7300000000000000000000000000000000000000000000000000000000000000602082015250565b60006118b660218361107c565b91506118c18261185a565b604082019050919050565b600060208201905081810360008301526118e5816118a9565b9050919050565b7f45524332303a206275726e20616d6f756e7420657863656564732062616c616e60008201527f6365000000000000000000000000000000000000000000000000000000000000602082015250565b600061194860228361107c565b9150611953826118ec565b604082019050919050565b600060208201905081810360008301526119778161193b565b9050919050565b600061198982611186565b915061199483611186565b92508282039050818111156119ac576119ab6113b3565b5b9291505056fea2646970667358221220e505e602002c9cdc6d2b87cdd070fe95d05940e6601e6ef2146b4cc72a44fa5564736f6c63430008110033",
  "immutableReferences": {},
  "source": "// SPDX-License-Identifier: MIT\n\npragma solidity ^0.8.17;\n\nimport \"../node_modules/openzeppelin-solidity/contracts/token/ERC20/ERC20.sol\";\n\ncontract CookieToken is ERC20 {\n    string public _name = \"CookieToken\";\n    string public _symbol = \"CTK\";\n    uint private _totalSupply = 10000 * (10 ** decimals());\n    \n    constructor() ERC20(_name, _symbol) {\n    }\n\n    function mintEther(address minter, uint amount) public payable {\n        require(totalSupply() <= _totalSupply);\n        _mint(minter, amount); \n    }\n    function tokenBurn(address burner, uint amount) public {\n        _burn(burner, amount);\n    }\n}",
  "sourcePath": "/Users/allen/Documents/KGA_blockchain/TeamProject_CookieNFT/contracts/CookieToken.sol",
  "compiler": {
    "name": "solc",
    "version": "0.8.17+commit.8df45f5f.Emscripten.clang"
  },
  "schemaVersion": "3.4.11",
  "updatedAt": "2022-12-26T08:11:32.552Z",
  "networkType": "ethereum",
  "devdoc": {
    "kind": "dev",
    "methods": {
      "allowance(address,address)": {
        "details": "See {IERC20-allowance}."
      },
      "approve(address,uint256)": {
        "details": "See {IERC20-approve}. NOTE: If `amount` is the maximum `uint256`, the allowance is not updated on `transferFrom`. This is semantically equivalent to an infinite approval. Requirements: - `spender` cannot be the zero address."
      },
      "balanceOf(address)": {
        "details": "See {IERC20-balanceOf}."
      },
      "decimals()": {
        "details": "Returns the number of decimals used to get its user representation. For example, if `decimals` equals `2`, a balance of `505` tokens should be displayed to a user as `5.05` (`505 / 10 ** 2`). Tokens usually opt for a value of 18, imitating the relationship between Ether and Wei. This is the value {ERC20} uses, unless this function is overridden; NOTE: This information is only used for _display_ purposes: it in no way affects any of the arithmetic of the contract, including {IERC20-balanceOf} and {IERC20-transfer}."
      },
      "decreaseAllowance(address,uint256)": {
        "details": "Atomically decreases the allowance granted to `spender` by the caller. This is an alternative to {approve} that can be used as a mitigation for problems described in {IERC20-approve}. Emits an {Approval} event indicating the updated allowance. Requirements: - `spender` cannot be the zero address. - `spender` must have allowance for the caller of at least `subtractedValue`."
      },
      "increaseAllowance(address,uint256)": {
        "details": "Atomically increases the allowance granted to `spender` by the caller. This is an alternative to {approve} that can be used as a mitigation for problems described in {IERC20-approve}. Emits an {Approval} event indicating the updated allowance. Requirements: - `spender` cannot be the zero address."
      },
      "name()": {
        "details": "Returns the name of the token."
      },
      "symbol()": {
        "details": "Returns the symbol of the token, usually a shorter version of the name."
      },
      "totalSupply()": {
        "details": "See {IERC20-totalSupply}."
      },
      "transfer(address,uint256)": {
        "details": "See {IERC20-transfer}. Requirements: - `to` cannot be the zero address. - the caller must have a balance of at least `amount`."
      },
      "transferFrom(address,address,uint256)": {
        "details": "See {IERC20-transferFrom}. Emits an {Approval} event indicating the updated allowance. This is not required by the EIP. See the note at the beginning of {ERC20}. NOTE: Does not update the allowance if the current allowance is the maximum `uint256`. Requirements: - `from` and `to` cannot be the zero address. - `from` must have a balance of at least `amount`. - the caller must have allowance for ``from``'s tokens of at least `amount`."
      }
    },
    "version": 1
  },
  "userdoc": {
    "kind": "user",
    "methods": {},
    "version": 1
  }
}