{
  "contractName": "CookieToken",
  "abi": [
    {
      "inputs": [],
      "stateMutability": "nonpayable",
      "type": "constructor"
    },
    {
      "anonymous": false,
      "inputs": [
        {
          "indexed": true,
          "internalType": "address",
          "name": "owner",
          "type": "address"
        },
        {
          "indexed": true,
          "internalType": "address",
          "name": "spender",
          "type": "address"
        },
        {
          "indexed": false,
          "internalType": "uint256",
          "name": "value",
          "type": "uint256"
        }
      ],
      "name": "Approval",
      "type": "event"
    },
    {
      "anonymous": false,
      "inputs": [
        {
          "indexed": true,
          "internalType": "address",
          "name": "from",
          "type": "address"
        },
        {
          "indexed": true,
          "internalType": "address",
          "name": "to",
          "type": "address"
        },
        {
          "indexed": false,
          "internalType": "uint256",
          "name": "value",
          "type": "uint256"
        }
      ],
      "name": "Transfer",
      "type": "event"
    },
    {
      "inputs": [],
      "name": "_name",
      "outputs": [
        {
          "internalType": "string",
          "name": "",
          "type": "string"
        }
      ],
      "stateMutability": "view",
      "type": "function",
      "constant": true
    },
    {
      "inputs": [],
      "name": "_symbol",
      "outputs": [
        {
          "internalType": "string",
          "name": "",
          "type": "string"
        }
      ],
      "stateMutability": "view",
      "type": "function",
      "constant": true
    },
    {
      "inputs": [
        {
          "internalType": "address",
          "name": "owner",
          "type": "address"
        },
        {
          "internalType": "address",
          "name": "spender",
          "type": "address"
        }
      ],
      "name": "allowance",
      "outputs": [
        {
          "internalType": "uint256",
          "name": "",
          "type": "uint256"
        }
      ],
      "stateMutability": "view",
      "type": "function",
      "constant": true
    },
    {
      "inputs": [
        {
          "internalType": "address",
          "name": "spender",
          "type": "address"
        },
        {
          "internalType": "uint256",
          "name": "amount",
          "type": "uint256"
        }
      ],
      "name": "approve",
      "outputs": [
        {
          "internalType": "bool",
          "name": "",
          "type": "bool"
        }
      ],
      "stateMutability": "nonpayable",
      "type": "function"
    },
    {
      "inputs": [
        {
          "internalType": "address",
          "name": "account",
          "type": "address"
        }
      ],
      "name": "balanceOf",
      "outputs": [
        {
          "internalType": "uint256",
          "name": "",
          "type": "uint256"
        }
      ],
      "stateMutability": "view",
      "type": "function",
      "constant": true
    },
    {
      "inputs": [],
      "name": "decimals",
      "outputs": [
        {
          "internalType": "uint8",
          "name": "",
          "type": "uint8"
        }
      ],
      "stateMutability": "view",
      "type": "function",
      "constant": true
    },
    {
      "inputs": [
        {
          "internalType": "address",
          "name": "spender",
          "type": "address"
        },
        {
          "internalType": "uint256",
          "name": "subtractedValue",
          "type": "uint256"
        }
      ],
      "name": "decreaseAllowance",
      "outputs": [
        {
          "internalType": "bool",
          "name": "",
          "type": "bool"
        }
      ],
      "stateMutability": "nonpayable",
      "type": "function"
    },
    {
      "inputs": [
        {
          "internalType": "address",
          "name": "spender",
          "type": "address"
        },
        {
          "internalType": "uint256",
          "name": "addedValue",
          "type": "uint256"
        }
      ],
      "name": "increaseAllowance",
      "outputs": [
        {
          "internalType": "bool",
          "name": "",
          "type": "bool"
        }
      ],
      "stateMutability": "nonpayable",
      "type": "function"
    },
    {
      "inputs": [],
      "name": "name",
      "outputs": [
        {
          "internalType": "string",
          "name": "",
          "type": "string"
        }
      ],
      "stateMutability": "view",
      "type": "function",
      "constant": true
    },
    {
      "inputs": [],
      "name": "symbol",
      "outputs": [
        {
          "internalType": "string",
          "name": "",
          "type": "string"
        }
      ],
      "stateMutability": "view",
      "type": "function",
      "constant": true
    },
    {
      "inputs": [
        {
          "internalType": "address",
          "name": "to",
          "type": "address"
        },
        {
          "internalType": "uint256",
          "name": "amount",
          "type": "uint256"
        }
      ],
      "name": "transfer",
      "outputs": [
        {
          "internalType": "bool",
          "name": "",
          "type": "bool"
        }
      ],
      "stateMutability": "nonpayable",
      "type": "function"
    },
    {
      "inputs": [
        {
          "internalType": "address",
          "name": "from",
          "type": "address"
        },
        {
          "internalType": "address",
          "name": "to",
          "type": "address"
        },
        {
          "internalType": "uint256",
          "name": "amount",
          "type": "uint256"
        }
      ],
      "name": "transferFrom",
      "outputs": [
        {
          "internalType": "bool",
          "name": "",
          "type": "bool"
        }
      ],
      "stateMutability": "nonpayable",
      "type": "function"
    },
    {
      "inputs": [
        {
          "internalType": "address",
          "name": "minter",
          "type": "address"
        },
        {
          "internalType": "uint256",
          "name": "amount",
          "type": "uint256"
        }
      ],
      "name": "mintEther",
      "outputs": [],
      "stateMutability": "payable",
      "type": "function",
      "payable": true
    },
    {
      "inputs": [],
      "name": "totalSupply",
      "outputs": [
        {
          "internalType": "uint256",
          "name": "",
          "type": "uint256"
        }
      ],
      "stateMutability": "view",
      "type": "function",
      "constant": true
    },
    {
      "inputs": [
        {
          "internalType": "address",
          "name": "burner",
          "type": "address"
        },
        {
          "internalType": "uint256",
          "name": "amount",
          "type": "uint256"
        }
      ],
      "name": "tokenBurn",
      "outputs": [],
      "stateMutability": "nonpayable",
      "type": "function"
    }
  ],
  "bytecode": "0x60806040526040518060400160405280600b81526020017f436f6f6b6965546f6b656e000000000000000000000000000000000000000000815250600590816200004a91906200063b565b506040518060400160405280600381526020017f43544b0000000000000000000000000000000000000000000000000000000000815250600690816200009191906200063b565b50620000a26200023660201b60201c565b600a620000b09190620008b2565b612710620000bf919062000903565b600755348015620000cf57600080fd5b5060058054620000df906200042a565b80601f01602080910402602001604051908101604052809291908181526020018280546200010d906200042a565b80156200015e5780601f1062000132576101008083540402835291602001916200015e565b820191906000526020600020905b8154815290600101906020018083116200014057829003601f168201915b50505050506006805462000172906200042a565b80601f0160208091040260200160405190810160405280929190818152602001828054620001a0906200042a565b8015620001f15780601f10620001c557610100808354040283529160200191620001f1565b820191906000526020600020905b815481529060010190602001808311620001d357829003601f168201915b505050505081600390816200020791906200063b565b5080600490816200021991906200063b565b50505062000230336007546200023f60201b60201c565b62000a3a565b60006012905090565b600073ffffffffffffffffffffffffffffffffffffffff168273ffffffffffffffffffffffffffffffffffffffff1603620002b1576040517f08c379a0000000000000000000000000000000000000000000000000000000008152600401620002a890620009af565b60405180910390fd5b620002c560008383620003b760201b60201c565b8060026000828254620002d99190620009d1565b92505081905550806000808473ffffffffffffffffffffffffffffffffffffffff1673ffffffffffffffffffffffffffffffffffffffff1681526020019081526020016000206000828254620003309190620009d1565b925050819055508173ffffffffffffffffffffffffffffffffffffffff16600073ffffffffffffffffffffffffffffffffffffffff167fddf252ad1be2c89b69c2b068fc378daa952ba7f163c4a11628f55a4df523b3ef8360405162000397919062000a1d565b60405180910390a3620003b360008383620003bc60201b60201c565b5050565b505050565b505050565b600081519050919050565b7f4e487b7100000000000000000000000000000000000000000000000000000000600052604160045260246000fd5b7f4e487b7100000000000000000000000000000000000000000000000000000000600052602260045260246000fd5b600060028204905060018216806200044357607f821691505b602082108103620004595762000458620003fb565b5b50919050565b60008190508160005260206000209050919050565b60006020601f8301049050919050565b600082821b905092915050565b600060088302620004c37fffffffffffffffffffffffffffffffffffffffffffffffffffffffffffffffff8262000484565b620004cf868362000484565b95508019841693508086168417925050509392505050565b6000819050919050565b6000819050919050565b60006200051c620005166200051084620004e7565b620004f1565b620004e7565b9050919050565b6000819050919050565b6200053883620004fb565b62000550620005478262000523565b84845462000491565b825550505050565b600090565b6200056762000558565b620005748184846200052d565b505050565b5b818110156200059c57620005906000826200055d565b6001810190506200057a565b5050565b601f821115620005eb57620005b5816200045f565b620005c08462000474565b81016020851015620005d0578190505b620005e8620005df8562000474565b83018262000579565b50505b505050565b600082821c905092915050565b60006200061060001984600802620005f0565b1980831691505092915050565b60006200062b8383620005fd565b9150826002028217905092915050565b6200064682620003c1565b67ffffffffffffffff811115620006625762000661620003cc565b5b6200066e82546200042a565b6200067b828285620005a0565b600060209050601f831160018114620006b357600084156200069e578287015190505b620006aa85826200061d565b8655506200071a565b601f198416620006c3866200045f565b60005b82811015620006ed57848901518255600182019150602085019450602081019050620006c6565b868310156200070d578489015162000709601f891682620005fd565b8355505b6001600288020188555050505b505050505050565b7f4e487b7100000000000000000000000000000000000000000000000000000000600052601160045260246000fd5b60008160011c9050919050565b6000808291508390505b6001851115620007b05780860481111562000788576200078762000722565b5b6001851615620007985780820291505b8081029050620007a88562000751565b945062000768565b94509492505050565b600082620007cb57600190506200089e565b81620007db57600090506200089e565b8160018114620007f45760028114620007ff5762000835565b60019150506200089e565b60ff84111562000814576200081362000722565b5b8360020a9150848211156200082e576200082d62000722565b5b506200089e565b5060208310610133831016604e8410600b84101617156200086f5782820a90508381111562000869576200086862000722565b5b6200089e565b6200087e84848460016200075e565b9250905081840481111562000898576200089762000722565b5b81810290505b9392505050565b600060ff82169050919050565b6000620008bf82620004e7565b9150620008cc83620008a5565b9250620008fb7fffffffffffffffffffffffffffffffffffffffffffffffffffffffffffffffff8484620007b9565b905092915050565b60006200091082620004e7565b91506200091d83620004e7565b92508282026200092d81620004e7565b9150828204841483151762000947576200094662000722565b5b5092915050565b600082825260208201905092915050565b7f45524332303a206d696e7420746f20746865207a65726f206164647265737300600082015250565b600062000997601f836200094e565b9150620009a4826200095f565b602082019050919050565b60006020820190508181036000830152620009ca8162000988565b9050919050565b6000620009de82620004e7565b9150620009eb83620004e7565b925082820190508082111562000a065762000a0562000722565b5b92915050565b62000a1781620004e7565b82525050565b600060208201905062000a34600083018462000a0c565b92915050565b6119d28062000a4a6000396000f3fe6080604052600436106100e85760003560e01c806395d89b411161008a578063bb598fa311610059578063bb598fa314610332578063d28d88521461034e578063dd62ed3e14610379578063f88d7f31146103b6576100e8565b806395d89b4114610262578063a457c2d71461028d578063a9059cbb146102ca578063b09f126614610307576100e8565b806323b872dd116100c657806323b872dd14610180578063313ce567146101bd57806339509351146101e857806370a0823114610225576100e8565b806306fdde03146100ed578063095ea7b31461011857806318160ddd14610155575b600080fd5b3480156100f957600080fd5b506101026103df565b60405161010f91906110eb565b60405180910390f35b34801561012457600080fd5b5061013f600480360381019061013a91906111a6565b610471565b60405161014c9190611201565b60405180910390f35b34801561016157600080fd5b5061016a610494565b604051610177919061122b565b60405180910390f35b34801561018c57600080fd5b506101a760048036038101906101a29190611246565b61049e565b6040516101b49190611201565b60405180910390f35b3480156101c957600080fd5b506101d26104cd565b6040516101df91906112b5565b60405180910390f35b3480156101f457600080fd5b5061020f600480360381019061020a91906111a6565b6104d6565b60405161021c9190611201565b60405180910390f35b34801561023157600080fd5b5061024c600480360381019061024791906112d0565b61050d565b604051610259919061122b565b60405180910390f35b34801561026e57600080fd5b50610277610555565b60405161028491906110eb565b60405180910390f35b34801561029957600080fd5b506102b460048036038101906102af91906111a6565b6105e7565b6040516102c19190611201565b60405180910390f35b3480156102d657600080fd5b506102f160048036038101906102ec91906111a6565b61065e565b6040516102fe9190611201565b60405180910390f35b34801561031357600080fd5b5061031c610681565b60405161032991906110eb565b60405180910390f35b61034c600480360381019061034791906111a6565b61070f565b005b34801561035a57600080fd5b5061036361071d565b60405161037091906110eb565b60405180910390f35b34801561038557600080fd5b506103a0600480360381019061039b91906112fd565b6107ab565b6040516103ad919061122b565b60405180910390f35b3480156103c257600080fd5b506103dd60048036038101906103d891906111a6565b610832565b005b6060600380546103ee9061136c565b80601f016020809104026020016040519081016040528092919081815260200182805461041a9061136c565b80156104675780601f1061043c57610100808354040283529160200191610467565b820191906000526020600020905b81548152906001019060200180831161044a57829003601f168201915b5050505050905090565b60008061047c610840565b9050610489818585610848565b600191505092915050565b6000600754905090565b6000806104a9610840565b90506104b6858285610a11565b6104c1858585610a9d565b60019150509392505050565b60006012905090565b6000806104e1610840565b90506105028185856104f385896107ab565b6104fd91906113cc565b610848565b600191505092915050565b60008060008373ffffffffffffffffffffffffffffffffffffffff1673ffffffffffffffffffffffffffffffffffffffff168152602001908152602001600020549050919050565b6060600480546105649061136c565b80601f01602080910402602001604051908101604052809291908181526020018280546105909061136c565b80156105dd5780601f106105b2576101008083540402835291602001916105dd565b820191906000526020600020905b8154815290600101906020018083116105c057829003601f168201915b5050505050905090565b6000806105f2610840565b9050600061060082866107ab565b905083811015610645576040517f08c379a000000000000000000000000000000000000000000000000000000000815260040161063c90611472565b60405180910390fd5b6106528286868403610848565b60019250505092915050565b600080610669610840565b9050610676818585610a9d565b600191505092915050565b6006805461068e9061136c565b80601f01602080910402602001604051908101604052809291908181526020018280546106ba9061136c565b80156107075780601f106106dc57610100808354040283529160200191610707565b820191906000526020600020905b8154815290600101906020018083116106ea57829003601f168201915b505050505081565b6107198282610d1c565b5050565b6005805461072a9061136c565b80601f01602080910402602001604051908101604052809291908181526020018280546107569061136c565b80156107a35780601f10610778576101008083540402835291602001916107a3565b820191906000526020600020905b81548152906001019060200180831161078657829003601f168201915b505050505081565b6000600160008473ffffffffffffffffffffffffffffffffffffffff1673ffffffffffffffffffffffffffffffffffffffff16815260200190815260200160002060008373ffffffffffffffffffffffffffffffffffffffff1673ffffffffffffffffffffffffffffffffffffffff16815260200190815260200160002054905092915050565b61083c8282610e7b565b5050565b600033905090565b600073ffffffffffffffffffffffffffffffffffffffff168373ffffffffffffffffffffffffffffffffffffffff16036108b7576040517f08c379a00000000000000000000000000000000000000000000000000000000081526004016108ae90611504565b60405180910390fd5b600073ffffffffffffffffffffffffffffffffffffffff168273ffffffffffffffffffffffffffffffffffffffff1603610926576040517f08c379a000000000000000000000000000000000000000000000000000000000815260040161091d90611596565b60405180910390fd5b80600160008573ffffffffffffffffffffffffffffffffffffffff1673ffffffffffffffffffffffffffffffffffffffff16815260200190815260200160002060008473ffffffffffffffffffffffffffffffffffffffff1673ffffffffffffffffffffffffffffffffffffffff168152602001908152602001600020819055508173ffffffffffffffffffffffffffffffffffffffff168373ffffffffffffffffffffffffffffffffffffffff167f8c5be1e5ebec7d5bd14f71427d1e84f3dd0314c0f7b2291e5b200ac8c7c3b92583604051610a04919061122b565b60405180910390a3505050565b6000610a1d84846107ab565b90507fffffffffffffffffffffffffffffffffffffffffffffffffffffffffffffffff8114610a975781811015610a89576040517f08c379a0000000000000000000000000000000000000000000000000000000008152600401610a8090611602565b60405180910390fd5b610a968484848403610848565b5b50505050565b600073ffffffffffffffffffffffffffffffffffffffff168373ffffffffffffffffffffffffffffffffffffffff1603610b0c576040517f08c379a0000000000000000000000000000000000000000000000000000000008152600401610b0390611694565b60405180910390fd5b600073ffffffffffffffffffffffffffffffffffffffff168273ffffffffffffffffffffffffffffffffffffffff1603610b7b576040517f08c379a0000000000000000000000000000000000000000000000000000000008152600401610b7290611726565b60405180910390fd5b610b86838383611051565b60008060008573ffffffffffffffffffffffffffffffffffffffff1673ffffffffffffffffffffffffffffffffffffffff16815260200190815260200160002054905081811015610c0c576040517f08c379a0000000000000000000000000000000000000000000000000000000008152600401610c03906117b8565b60405180910390fd5b8181036000808673ffffffffffffffffffffffffffffffffffffffff1673ffffffffffffffffffffffffffffffffffffffff16815260200190815260200160002081905550816000808573ffffffffffffffffffffffffffffffffffffffff1673ffffffffffffffffffffffffffffffffffffffff1681526020019081526020016000206000828254610c9f91906113cc565b925050819055508273ffffffffffffffffffffffffffffffffffffffff168473ffffffffffffffffffffffffffffffffffffffff167fddf252ad1be2c89b69c2b068fc378daa952ba7f163c4a11628f55a4df523b3ef84604051610d03919061122b565b60405180910390a3610d16848484611056565b50505050565b600073ffffffffffffffffffffffffffffffffffffffff168273ffffffffffffffffffffffffffffffffffffffff1603610d8b576040517f08c379a0000000000000000000000000000000000000000000000000000000008152600401610d8290611824565b60405180910390fd5b610d9760008383611051565b8060026000828254610da991906113cc565b92505081905550806000808473ffffffffffffffffffffffffffffffffffffffff1673ffffffffffffffffffffffffffffffffffffffff1681526020019081526020016000206000828254610dfe91906113cc565b925050819055508173ffffffffffffffffffffffffffffffffffffffff16600073ffffffffffffffffffffffffffffffffffffffff167fddf252ad1be2c89b69c2b068fc378daa952ba7f163c4a11628f55a4df523b3ef83604051610e63919061122b565b60405180910390a3610e7760008383611056565b5050565b600073ffffffffffffffffffffffffffffffffffffffff168273ffffffffffffffffffffffffffffffffffffffff1603610eea576040517f08c379a0000000000000000000000000000000000000000000000000000000008152600401610ee1906118b6565b60405180910390fd5b610ef682600083611051565b60008060008473ffffffffffffffffffffffffffffffffffffffff1673ffffffffffffffffffffffffffffffffffffffff16815260200190815260200160002054905081811015610f7c576040517f08c379a0000000000000000000000000000000000000000000000000000000008152600401610f7390611948565b60405180910390fd5b8181036000808573ffffffffffffffffffffffffffffffffffffffff1673ffffffffffffffffffffffffffffffffffffffff168152602001908152602001600020819055508160026000828254610fd39190611968565b92505081905550600073ffffffffffffffffffffffffffffffffffffffff168373ffffffffffffffffffffffffffffffffffffffff167fddf252ad1be2c89b69c2b068fc378daa952ba7f163c4a11628f55a4df523b3ef84604051611038919061122b565b60405180910390a361104c83600084611056565b505050565b505050565b505050565b600081519050919050565b600082825260208201905092915050565b60005b8381101561109557808201518184015260208101905061107a565b60008484015250505050565b6000601f19601f8301169050919050565b60006110bd8261105b565b6110c78185611066565b93506110d7818560208601611077565b6110e0816110a1565b840191505092915050565b6000602082019050818103600083015261110581846110b2565b905092915050565b600080fd5b600073ffffffffffffffffffffffffffffffffffffffff82169050919050565b600061113d82611112565b9050919050565b61114d81611132565b811461115857600080fd5b50565b60008135905061116a81611144565b92915050565b6000819050919050565b61118381611170565b811461118e57600080fd5b50565b6000813590506111a08161117a565b92915050565b600080604083850312156111bd576111bc61110d565b5b60006111cb8582860161115b565b92505060206111dc85828601611191565b9150509250929050565b60008115159050919050565b6111fb816111e6565b82525050565b600060208201905061121660008301846111f2565b92915050565b61122581611170565b82525050565b6000602082019050611240600083018461121c565b92915050565b60008060006060848603121561125f5761125e61110d565b5b600061126d8682870161115b565b935050602061127e8682870161115b565b925050604061128f86828701611191565b9150509250925092565b600060ff82169050919050565b6112af81611299565b82525050565b60006020820190506112ca60008301846112a6565b92915050565b6000602082840312156112e6576112e561110d565b5b60006112f48482850161115b565b91505092915050565b600080604083850312156113145761131361110d565b5b60006113228582860161115b565b92505060206113338582860161115b565b9150509250929050565b7f4e487b7100000000000000000000000000000000000000000000000000000000600052602260045260246000fd5b6000600282049050600182168061138457607f821691505b6020821081036113975761139661133d565b5b50919050565b7f4e487b7100000000000000000000000000000000000000000000000000000000600052601160045260246000fd5b60006113d782611170565b91506113e283611170565b92508282019050808211156113fa576113f961139d565b5b92915050565b7f45524332303a2064656372656173656420616c6c6f77616e63652062656c6f7760008201527f207a65726f000000000000000000000000000000000000000000000000000000602082015250565b600061145c602583611066565b915061146782611400565b604082019050919050565b6000602082019050818103600083015261148b8161144f565b9050919050565b7f45524332303a20617070726f76652066726f6d20746865207a65726f2061646460008201527f7265737300000000000000000000000000000000000000000000000000000000602082015250565b60006114ee602483611066565b91506114f982611492565b604082019050919050565b6000602082019050818103600083015261151d816114e1565b9050919050565b7f45524332303a20617070726f766520746f20746865207a65726f20616464726560008201527f7373000000000000000000000000000000000000000000000000000000000000602082015250565b6000611580602283611066565b915061158b82611524565b604082019050919050565b600060208201905081810360008301526115af81611573565b9050919050565b7f45524332303a20696e73756666696369656e7420616c6c6f77616e6365000000600082015250565b60006115ec601d83611066565b91506115f7826115b6565b602082019050919050565b6000602082019050818103600083015261161b816115df565b9050919050565b7f45524332303a207472616e736665722066726f6d20746865207a65726f20616460008201527f6472657373000000000000000000000000000000000000000000000000000000602082015250565b600061167e602583611066565b915061168982611622565b604082019050919050565b600060208201905081810360008301526116ad81611671565b9050919050565b7f45524332303a207472616e7366657220746f20746865207a65726f206164647260008201527f6573730000000000000000000000000000000000000000000000000000000000602082015250565b6000611710602383611066565b915061171b826116b4565b604082019050919050565b6000602082019050818103600083015261173f81611703565b9050919050565b7f45524332303a207472616e7366657220616d6f756e742065786365656473206260008201527f616c616e63650000000000000000000000000000000000000000000000000000602082015250565b60006117a2602683611066565b91506117ad82611746565b604082019050919050565b600060208201905081810360008301526117d181611795565b9050919050565b7f45524332303a206d696e7420746f20746865207a65726f206164647265737300600082015250565b600061180e601f83611066565b9150611819826117d8565b602082019050919050565b6000602082019050818103600083015261183d81611801565b9050919050565b7f45524332303a206275726e2066726f6d20746865207a65726f2061646472657360008201527f7300000000000000000000000000000000000000000000000000000000000000602082015250565b60006118a0602183611066565b91506118ab82611844565b604082019050919050565b600060208201905081810360008301526118cf81611893565b9050919050565b7f45524332303a206275726e20616d6f756e7420657863656564732062616c616e60008201527f6365000000000000000000000000000000000000000000000000000000000000602082015250565b6000611932602283611066565b915061193d826118d6565b604082019050919050565b6000602082019050818103600083015261196181611925565b9050919050565b600061197382611170565b915061197e83611170565b92508282039050818111156119965761199561139d565b5b9291505056fea26469706673582212201f4e051567821a38fba7e893c5977b1c9d7ede0c0c6e39bafc188b752c7277fb64736f6c63430008110033",
  "immutableReferences": {},
  "source": "// SPDX-License-Identifier: MIT\npragma solidity ^0.8.17;\n\nimport \"../node_modules/openzeppelin-solidity/contracts/token/ERC20/ERC20.sol\";\n\ncontract CookieToken is ERC20 {\n    string public _name = \"CookieToken\";\n    string public _symbol = \"CTK\";\n    uint private _totalSupply = 10000 * (10 ** decimals());\n    \n    constructor() ERC20(_name, _symbol) {\n        _mint(msg.sender, _totalSupply);\n    }\n    function mintEther(address minter, uint amount) public payable{\n        _mint(minter, amount);\n    }\n    function totalSupply() public override view returns (uint) {\n        return _totalSupply;\n    }\n    function tokenBurn(address burner, uint amount) public {\n        _burn(burner, amount);\n    }\n}",
  "sourcePath": "/Users/allen/Documents/KGA_blockchain/TeamProject_CookieNFT/contracts/cookieToken.sol",
  "compiler": {
    "name": "solc",
    "version": "0.8.17+commit.8df45f5f.Emscripten.clang"
  },
  "schemaVersion": "3.4.11",
  "updatedAt": "2022-12-26T03:46:19.698Z",
  "networkType": "ethereum",
  "devdoc": {
    "kind": "dev",
    "methods": {
      "allowance(address,address)": {
        "details": "See {IERC20-allowance}."
      },
      "approve(address,uint256)": {
        "details": "See {IERC20-approve}. NOTE: If `amount` is the maximum `uint256`, the allowance is not updated on `transferFrom`. This is semantically equivalent to an infinite approval. Requirements: - `spender` cannot be the zero address."
      },
      "balanceOf(address)": {
        "details": "See {IERC20-balanceOf}."
      },
      "decimals()": {
        "details": "Returns the number of decimals used to get its user representation. For example, if `decimals` equals `2`, a balance of `505` tokens should be displayed to a user as `5.05` (`505 / 10 ** 2`). Tokens usually opt for a value of 18, imitating the relationship between Ether and Wei. This is the value {ERC20} uses, unless this function is overridden; NOTE: This information is only used for _display_ purposes: it in no way affects any of the arithmetic of the contract, including {IERC20-balanceOf} and {IERC20-transfer}."
      },
      "decreaseAllowance(address,uint256)": {
        "details": "Atomically decreases the allowance granted to `spender` by the caller. This is an alternative to {approve} that can be used as a mitigation for problems described in {IERC20-approve}. Emits an {Approval} event indicating the updated allowance. Requirements: - `spender` cannot be the zero address. - `spender` must have allowance for the caller of at least `subtractedValue`."
      },
      "increaseAllowance(address,uint256)": {
        "details": "Atomically increases the allowance granted to `spender` by the caller. This is an alternative to {approve} that can be used as a mitigation for problems described in {IERC20-approve}. Emits an {Approval} event indicating the updated allowance. Requirements: - `spender` cannot be the zero address."
      },
      "name()": {
        "details": "Returns the name of the token."
      },
      "symbol()": {
        "details": "Returns the symbol of the token, usually a shorter version of the name."
      },
      "totalSupply()": {
        "details": "See {IERC20-totalSupply}."
      },
      "transfer(address,uint256)": {
        "details": "See {IERC20-transfer}. Requirements: - `to` cannot be the zero address. - the caller must have a balance of at least `amount`."
      },
      "transferFrom(address,address,uint256)": {
        "details": "See {IERC20-transferFrom}. Emits an {Approval} event indicating the updated allowance. This is not required by the EIP. See the note at the beginning of {ERC20}. NOTE: Does not update the allowance if the current allowance is the maximum `uint256`. Requirements: - `from` and `to` cannot be the zero address. - `from` must have a balance of at least `amount`. - the caller must have allowance for ``from``'s tokens of at least `amount`."
      }
    },
    "version": 1
  },
  "userdoc": {
    "kind": "user",
    "methods": {},
    "version": 1
  }
}