{
  "contractName": "EthSwap",
  "abi": [
    {
      "inputs": [
        {
          "internalType": "contract CookieToken",
          "name": "_token",
          "type": "address"
        }
      ],
      "stateMutability": "nonpayable",
      "type": "constructor"
    },
    {
      "inputs": [],
      "name": "rate",
      "outputs": [
        {
          "internalType": "uint256",
          "name": "",
          "type": "uint256"
        }
      ],
      "stateMutability": "view",
      "type": "function",
      "constant": true
    },
    {
      "inputs": [],
      "name": "token",
      "outputs": [
        {
          "internalType": "contract CookieToken",
          "name": "",
          "type": "address"
        }
      ],
      "stateMutability": "view",
      "type": "function",
      "constant": true
    },
    {
      "inputs": [],
      "name": "getToken",
      "outputs": [
        {
          "internalType": "address",
          "name": "",
          "type": "address"
        }
      ],
      "stateMutability": "view",
      "type": "function",
      "constant": true
    },
    {
      "inputs": [],
      "name": "getSwapBalance",
      "outputs": [
        {
          "internalType": "uint256",
          "name": "",
          "type": "uint256"
        }
      ],
      "stateMutability": "view",
      "type": "function",
      "constant": true
    },
    {
      "inputs": [],
      "name": "getMsgSender",
      "outputs": [
        {
          "internalType": "address",
          "name": "",
          "type": "address"
        }
      ],
      "stateMutability": "view",
      "type": "function",
      "constant": true
    },
    {
      "inputs": [],
      "name": "buyToken",
      "outputs": [],
      "stateMutability": "payable",
      "type": "function",
      "payable": true
    },
    {
      "inputs": [
        {
          "internalType": "uint256",
          "name": "tokenAmount",
          "type": "uint256"
        }
      ],
      "name": "sellToken",
      "outputs": [],
      "stateMutability": "payable",
      "type": "function",
      "payable": true
    }
  ],
  "bytecode": "0x6080604052606460015534801561001557600080fd5b506040516108b63803806108b6833981810160405281019061003791906100f2565b806000806101000a81548173ffffffffffffffffffffffffffffffffffffffff021916908373ffffffffffffffffffffffffffffffffffffffff1602179055505061011f565b600080fd5b600073ffffffffffffffffffffffffffffffffffffffff82169050919050565b60006100ad82610082565b9050919050565b60006100bf826100a2565b9050919050565b6100cf816100b4565b81146100da57600080fd5b50565b6000815190506100ec816100c6565b92915050565b6000602082840312156101085761010761007d565b5b6000610116848285016100dd565b91505092915050565b6107888061012e6000396000f3fe6080604052600436106100705760003560e01c80637a6ce2e11161004e5780637a6ce2e1146100e7578063a482171914610112578063c7b00aad1461011c578063fc0c546a1461014757610070565b806321df0da7146100755780632397e4d7146100a05780632c4e722e146100bc575b600080fd5b34801561008157600080fd5b5061008a610172565b60405161009791906104ef565b60405180910390f35b6100ba60048036038101906100b59190610545565b61019b565b005b3480156100c857600080fd5b506100d1610338565b6040516100de9190610581565b60405180910390f35b3480156100f357600080fd5b506100fc61033e565b60405161010991906104ef565b60405180910390f35b61011a610346565b005b34801561012857600080fd5b506101316103e8565b60405161013e9190610581565b60405180910390f35b34801561015357600080fd5b5061015c61048a565b60405161016991906105fb565b60405180910390f35b60008060009054906101000a900473ffffffffffffffffffffffffffffffffffffffff16905090565b8060008054906101000a900473ffffffffffffffffffffffffffffffffffffffff1673ffffffffffffffffffffffffffffffffffffffff166370a08231336040518263ffffffff1660e01b81526004016101f591906104ef565b602060405180830381865afa158015610212573d6000803e3d6000fd5b505050506040513d601f19601f82011682018060405250810190610236919061062b565b101561024157600080fd5b60006001548261025191906106b6565b90508047101561026057600080fd5b60008054906101000a900473ffffffffffffffffffffffffffffffffffffffff1673ffffffffffffffffffffffffffffffffffffffff1663f88d7f3133846040518363ffffffff1660e01b81526004016102bb9291906106e7565b600060405180830381600087803b1580156102d557600080fd5b505af11580156102e9573d6000803e3d6000fd5b505050503373ffffffffffffffffffffffffffffffffffffffff166108fc829081150290604051600060405180830381858888f19350505050158015610333573d6000803e3d6000fd5b505050565b60015481565b600033905090565b6000600154346103569190610710565b905060008054906101000a900473ffffffffffffffffffffffffffffffffffffffff1673ffffffffffffffffffffffffffffffffffffffff1663bb598fa333836040518363ffffffff1660e01b81526004016103b39291906106e7565b600060405180830381600087803b1580156103cd57600080fd5b505af11580156103e1573d6000803e3d6000fd5b5050505050565b60008060009054906101000a900473ffffffffffffffffffffffffffffffffffffffff1673ffffffffffffffffffffffffffffffffffffffff166370a08231336040518263ffffffff1660e01b815260040161044491906104ef565b602060405180830381865afa158015610461573d6000803e3d6000fd5b505050506040513d601f19601f82011682018060405250810190610485919061062b565b905090565b60008054906101000a900473ffffffffffffffffffffffffffffffffffffffff1681565b600073ffffffffffffffffffffffffffffffffffffffff82169050919050565b60006104d9826104ae565b9050919050565b6104e9816104ce565b82525050565b600060208201905061050460008301846104e0565b92915050565b600080fd5b6000819050919050565b6105228161050f565b811461052d57600080fd5b50565b60008135905061053f81610519565b92915050565b60006020828403121561055b5761055a61050a565b5b600061056984828501610530565b91505092915050565b61057b8161050f565b82525050565b60006020820190506105966000830184610572565b92915050565b6000819050919050565b60006105c16105bc6105b7846104ae565b61059c565b6104ae565b9050919050565b60006105d3826105a6565b9050919050565b60006105e5826105c8565b9050919050565b6105f5816105da565b82525050565b600060208201905061061060008301846105ec565b92915050565b60008151905061062581610519565b92915050565b6000602082840312156106415761064061050a565b5b600061064f84828501610616565b91505092915050565b7f4e487b7100000000000000000000000000000000000000000000000000000000600052601260045260246000fd5b7f4e487b7100000000000000000000000000000000000000000000000000000000600052601160045260246000fd5b60006106c18261050f565b91506106cc8361050f565b9250826106dc576106db610658565b5b828204905092915050565b60006040820190506106fc60008301856104e0565b6107096020830184610572565b9392505050565b600061071b8261050f565b91506107268361050f565b92508282026107348161050f565b9150828204841483151761074b5761074a610687565b5b509291505056fea26469706673582212205cb49247a039a3da696c523f871cf50c659d474ad79ed61f1cb54d40b273a9ab64736f6c63430008110033",
  "immutableReferences": {},
  "source": "// SPDX-License-Identifier: MIT\npragma solidity ^0.8.17;\n\nimport \"../node_modules/openzeppelin-solidity/contracts/token/ERC20/ERC20.sol\";\nimport \"./CookieToken.sol\";\n\ncontract EthSwap {\n    CookieToken public token;\n    uint public rate = 100;\n\n    constructor(CookieToken _token) {\n        token = _token;\n    }\n\n    function getToken() public view returns (address) {\n        return address(token);\n    }\n\n    function getSwapBalance() public view returns(uint) {\n        return token.balanceOf(msg.sender);\n    } \n\n    function getMsgSender() public view returns(address) {\n        return msg.sender;\n    }\n\n    //   \n    function buyToken() public payable {\n        uint256 tokenAmount = msg.value * rate;\n        token.mintEther(msg.sender, tokenAmount);\n    }\n\n    //   \n    function sellToken(uint256 tokenAmount) public payable {\n        require(token.balanceOf(msg.sender) >= tokenAmount);\n        uint256 etherAmount = tokenAmount/rate;\n        require(address(this).balance >= etherAmount);\n        token.tokenBurn(msg.sender, tokenAmount);\n        payable(msg.sender).transfer(etherAmount);\n    }\n}",
  "sourcePath": "/Users/allen/Documents/KGA_blockchain/TeamProject_CookieNFT/contracts/EthSwap.sol",
  "compiler": {
    "name": "solc",
    "version": "0.8.17+commit.8df45f5f.Emscripten.clang"
  },
  "schemaVersion": "3.4.11",
  "updatedAt": "2022-12-26T08:11:32.560Z",
  "networkType": "ethereum",
  "devdoc": {
    "kind": "dev",
    "methods": {},
    "version": 1
  },
  "userdoc": {
    "kind": "user",
    "methods": {},
    "version": 1
  }
}