{
  "contractName": "EthSwap",
  "abi": [
    {
      "inputs": [
        {
          "internalType": "contract CookieToken",
          "name": "_token",
          "type": "address"
        }
      ],
      "stateMutability": "nonpayable",
      "type": "constructor"
    },
    {
      "inputs": [],
      "name": "rate",
      "outputs": [
        {
          "internalType": "uint256",
          "name": "",
          "type": "uint256"
        }
      ],
      "stateMutability": "view",
      "type": "function",
      "constant": true
    },
    {
      "inputs": [],
      "name": "token",
      "outputs": [
        {
          "internalType": "contract CookieToken",
          "name": "",
          "type": "address"
        }
      ],
      "stateMutability": "view",
      "type": "function",
      "constant": true
    },
    {
      "inputs": [],
      "name": "getToken",
      "outputs": [
        {
          "internalType": "address",
          "name": "",
          "type": "address"
        }
      ],
      "stateMutability": "view",
      "type": "function",
      "constant": true
    },
    {
      "inputs": [],
      "name": "getSwapBalance",
      "outputs": [
        {
          "internalType": "uint256",
          "name": "",
          "type": "uint256"
        }
      ],
      "stateMutability": "view",
      "type": "function",
      "constant": true
    },
    {
      "inputs": [],
      "name": "getMsgSender",
      "outputs": [
        {
          "internalType": "address",
          "name": "",
          "type": "address"
        }
      ],
      "stateMutability": "view",
      "type": "function",
      "constant": true
    },
    {
      "inputs": [],
      "name": "buyToken",
      "outputs": [],
      "stateMutability": "payable",
      "type": "function",
      "payable": true
    },
    {
      "inputs": [
        {
          "internalType": "uint256",
          "name": "tokenAmount",
          "type": "uint256"
        }
      ],
      "name": "sellToken",
      "outputs": [],
      "stateMutability": "payable",
      "type": "function",
      "payable": true
    }
  ],
  "bytecode": "0x6080604052606460015534801561001557600080fd5b50604051610a04380380610a04833981810160405281019061003791906100f2565b806000806101000a81548173ffffffffffffffffffffffffffffffffffffffff021916908373ffffffffffffffffffffffffffffffffffffffff1602179055505061011f565b600080fd5b600073ffffffffffffffffffffffffffffffffffffffff82169050919050565b60006100ad82610082565b9050919050565b60006100bf826100a2565b9050919050565b6100cf816100b4565b81146100da57600080fd5b50565b6000815190506100ec816100c6565b92915050565b6000602082840312156101085761010761007d565b5b6000610116848285016100dd565b91505092915050565b6108d68061012e6000396000f3fe6080604052600436106100705760003560e01c80637a6ce2e11161004e5780637a6ce2e1146100e7578063a482171914610112578063c7b00aad1461011c578063fc0c546a1461014757610070565b806321df0da7146100755780632397e4d7146100a05780632c4e722e146100bc575b600080fd5b34801561008157600080fd5b5061008a610172565b60405161009791906105c0565b60405180910390f35b6100ba60048036038101906100b59190610616565b61019b565b005b3480156100c857600080fd5b506100d1610338565b6040516100de9190610652565b60405180910390f35b3480156100f357600080fd5b506100fc61033e565b60405161010991906105c0565b60405180910390f35b61011a610346565b005b34801561012857600080fd5b506101316104b9565b60405161013e9190610652565b60405180910390f35b34801561015357600080fd5b5061015c61055b565b60405161016991906106cc565b60405180910390f35b60008060009054906101000a900473ffffffffffffffffffffffffffffffffffffffff16905090565b8060008054906101000a900473ffffffffffffffffffffffffffffffffffffffff1673ffffffffffffffffffffffffffffffffffffffff166370a08231336040518263ffffffff1660e01b81526004016101f591906105c0565b602060405180830381865afa158015610212573d6000803e3d6000fd5b505050506040513d601f19601f8201168201806040525081019061023691906106fc565b101561024157600080fd5b6000600154826102519190610787565b90508047101561026057600080fd5b60008054906101000a900473ffffffffffffffffffffffffffffffffffffffff1673ffffffffffffffffffffffffffffffffffffffff1663f88d7f3133846040518363ffffffff1660e01b81526004016102bb9291906107b8565b600060405180830381600087803b1580156102d557600080fd5b505af11580156102e9573d6000803e3d6000fd5b505050503373ffffffffffffffffffffffffffffffffffffffff166108fc829081150290604051600060405180830381858888f19350505050158015610333573d6000803e3d6000fd5b505050565b60015481565b600033905090565b60006001543461035691906107e1565b90508060008054906101000a900473ffffffffffffffffffffffffffffffffffffffff1673ffffffffffffffffffffffffffffffffffffffff166318160ddd6040518163ffffffff1660e01b8152600401602060405180830381865afa1580156103c4573d6000803e3d6000fd5b505050506040513d601f19601f820116820180604052508101906103e891906106fc565b1015610429576040517f08c379a000000000000000000000000000000000000000000000000000000000815260040161042090610880565b60405180910390fd5b60008054906101000a900473ffffffffffffffffffffffffffffffffffffffff1673ffffffffffffffffffffffffffffffffffffffff1663bb598fa333836040518363ffffffff1660e01b81526004016104849291906107b8565b600060405180830381600087803b15801561049e57600080fd5b505af11580156104b2573d6000803e3d6000fd5b5050505050565b60008060009054906101000a900473ffffffffffffffffffffffffffffffffffffffff1673ffffffffffffffffffffffffffffffffffffffff166370a08231336040518263ffffffff1660e01b815260040161051591906105c0565b602060405180830381865afa158015610532573d6000803e3d6000fd5b505050506040513d601f19601f8201168201806040525081019061055691906106fc565b905090565b60008054906101000a900473ffffffffffffffffffffffffffffffffffffffff1681565b600073ffffffffffffffffffffffffffffffffffffffff82169050919050565b60006105aa8261057f565b9050919050565b6105ba8161059f565b82525050565b60006020820190506105d560008301846105b1565b92915050565b600080fd5b6000819050919050565b6105f3816105e0565b81146105fe57600080fd5b50565b600081359050610610816105ea565b92915050565b60006020828403121561062c5761062b6105db565b5b600061063a84828501610601565b91505092915050565b61064c816105e0565b82525050565b60006020820190506106676000830184610643565b92915050565b6000819050919050565b600061069261068d6106888461057f565b61066d565b61057f565b9050919050565b60006106a482610677565b9050919050565b60006106b682610699565b9050919050565b6106c6816106ab565b82525050565b60006020820190506106e160008301846106bd565b92915050565b6000815190506106f6816105ea565b92915050565b600060208284031215610712576107116105db565b5b6000610720848285016106e7565b91505092915050565b7f4e487b7100000000000000000000000000000000000000000000000000000000600052601260045260246000fd5b7f4e487b7100000000000000000000000000000000000000000000000000000000600052601160045260246000fd5b6000610792826105e0565b915061079d836105e0565b9250826107ad576107ac610729565b5b828204905092915050565b60006040820190506107cd60008301856105b1565b6107da6020830184610643565b9392505050565b60006107ec826105e0565b91506107f7836105e0565b9250828202610805816105e0565b9150828204841483151761081c5761081b610758565b5b5092915050565b600082825260208201905092915050565b7f6572720000000000000000000000000000000000000000000000000000000000600082015250565b600061086a600383610823565b915061087582610834565b602082019050919050565b600060208201905081810360008301526108998161085d565b905091905056fea26469706673582212204ce987edf53a7d3d73e690c3e9ebc8ac0ce74eecdf661d591e89a6b1f62deabb64736f6c63430008110033",
  "immutableReferences": {},
  "source": "// SPDX-License-Identifier: MIT\npragma solidity ^0.8.17;\n\nimport \"../node_modules/openzeppelin-solidity/contracts/token/ERC20/ERC20.sol\";\nimport \"./CookieToken.sol\";\n\ncontract EthSwap {\n    CookieToken public token;\n    uint public rate = 100;\n\n    constructor(CookieToken _token) {\n        token = _token;\n    }\n\n    function getToken() public view returns (address) {\n        return address(token);\n    }\n\n    function getSwapBalance() public view returns(uint) {\n        return token.balanceOf(msg.sender);\n    }\n\n    function getMsgSender() public view returns(address) {\n        return msg.sender;\n    }\n\n    //   \n    function buyToken() public payable {\n        uint256 tokenAmount = msg.value * rate;\n        require(token.totalSupply() >= tokenAmount, \"err\");\n        token.mintEther(msg.sender, tokenAmount);\n    }\n\n    //   \n    function sellToken(uint256 tokenAmount) public payable {\n        require(token.balanceOf(msg.sender) >= tokenAmount);\n        uint256 etherAmount = tokenAmount/rate;\n        require(address(this).balance >= etherAmount);\n        token.tokenBurn(msg.sender, tokenAmount);\n        payable(msg.sender).transfer(etherAmount);\n    }\n}",
  "sourcePath": "/Users/allen/Documents/KGA_blockchain/TeamProject_CookieNFT/contracts/EthSwap.sol",
  "compiler": {
    "name": "solc",
    "version": "0.8.17+commit.8df45f5f.Emscripten.clang"
  },
  "schemaVersion": "3.4.11",
  "updatedAt": "2022-12-26T03:46:19.704Z",
  "networkType": "ethereum",
  "devdoc": {
    "kind": "dev",
    "methods": {},
    "version": 1
  },
  "userdoc": {
    "kind": "user",
    "methods": {},
    "version": 1
  }
}