{
  "contractName": "MintNft",
  "abi": [
    {
      "inputs": [
        {
          "internalType": "address",
          "name": "_tokenAddress",
          "type": "address"
        },
        {
          "internalType": "string",
          "name": "_metadataURI",
          "type": "string"
        }
      ],
      "stateMutability": "nonpayable",
      "type": "constructor"
    },
    {
      "anonymous": false,
      "inputs": [
        {
          "indexed": true,
          "internalType": "address",
          "name": "owner",
          "type": "address"
        },
        {
          "indexed": true,
          "internalType": "address",
          "name": "approved",
          "type": "address"
        },
        {
          "indexed": true,
          "internalType": "uint256",
          "name": "tokenId",
          "type": "uint256"
        }
      ],
      "name": "Approval",
      "type": "event"
    },
    {
      "anonymous": false,
      "inputs": [
        {
          "indexed": true,
          "internalType": "address",
          "name": "owner",
          "type": "address"
        },
        {
          "indexed": true,
          "internalType": "address",
          "name": "operator",
          "type": "address"
        },
        {
          "indexed": false,
          "internalType": "bool",
          "name": "approved",
          "type": "bool"
        }
      ],
      "name": "ApprovalForAll",
      "type": "event"
    },
    {
      "anonymous": false,
      "inputs": [
        {
          "indexed": true,
          "internalType": "address",
          "name": "previousOwner",
          "type": "address"
        },
        {
          "indexed": true,
          "internalType": "address",
          "name": "newOwner",
          "type": "address"
        }
      ],
      "name": "OwnershipTransferred",
      "type": "event"
    },
    {
      "anonymous": false,
      "inputs": [
        {
          "indexed": true,
          "internalType": "address",
          "name": "from",
          "type": "address"
        },
        {
          "indexed": true,
          "internalType": "address",
          "name": "to",
          "type": "address"
        },
        {
          "indexed": true,
          "internalType": "uint256",
          "name": "tokenId",
          "type": "uint256"
        }
      ],
      "name": "Transfer",
      "type": "event"
    },
    {
      "inputs": [],
      "name": "Common",
      "outputs": [
        {
          "internalType": "uint256",
          "name": "",
          "type": "uint256"
        }
      ],
      "stateMutability": "view",
      "type": "function",
      "constant": true
    },
    {
      "inputs": [],
      "name": "Epic",
      "outputs": [
        {
          "internalType": "uint256",
          "name": "",
          "type": "uint256"
        }
      ],
      "stateMutability": "view",
      "type": "function",
      "constant": true
    },
    {
      "inputs": [],
      "name": "Legendary",
      "outputs": [
        {
          "internalType": "uint256",
          "name": "",
          "type": "uint256"
        }
      ],
      "stateMutability": "view",
      "type": "function",
      "constant": true
    },
    {
      "inputs": [],
      "name": "MAX_NFT_COUNT",
      "outputs": [
        {
          "internalType": "uint256",
          "name": "",
          "type": "uint256"
        }
      ],
      "stateMutability": "view",
      "type": "function",
      "constant": true
    },
    {
      "inputs": [],
      "name": "Magic",
      "outputs": [
        {
          "internalType": "uint256",
          "name": "",
          "type": "uint256"
        }
      ],
      "stateMutability": "view",
      "type": "function",
      "constant": true
    },
    {
      "inputs": [],
      "name": "Rare",
      "outputs": [
        {
          "internalType": "uint256",
          "name": "",
          "type": "uint256"
        }
      ],
      "stateMutability": "view",
      "type": "function",
      "constant": true
    },
    {
      "inputs": [],
      "name": "Unique",
      "outputs": [
        {
          "internalType": "uint256",
          "name": "",
          "type": "uint256"
        }
      ],
      "stateMutability": "view",
      "type": "function",
      "constant": true
    },
    {
      "inputs": [
        {
          "internalType": "address",
          "name": "to",
          "type": "address"
        },
        {
          "internalType": "uint256",
          "name": "tokenId",
          "type": "uint256"
        }
      ],
      "name": "approve",
      "outputs": [],
      "stateMutability": "nonpayable",
      "type": "function"
    },
    {
      "inputs": [
        {
          "internalType": "address",
          "name": "owner",
          "type": "address"
        }
      ],
      "name": "balanceOf",
      "outputs": [
        {
          "internalType": "uint256",
          "name": "",
          "type": "uint256"
        }
      ],
      "stateMutability": "view",
      "type": "function",
      "constant": true
    },
    {
      "inputs": [],
      "name": "cookieT",
      "outputs": [
        {
          "internalType": "contract CookieToken",
          "name": "",
          "type": "address"
        }
      ],
      "stateMutability": "view",
      "type": "function",
      "constant": true
    },
    {
      "inputs": [
        {
          "internalType": "uint256",
          "name": "tokenId",
          "type": "uint256"
        }
      ],
      "name": "getApproved",
      "outputs": [
        {
          "internalType": "address",
          "name": "",
          "type": "address"
        }
      ],
      "stateMutability": "view",
      "type": "function",
      "constant": true
    },
    {
      "inputs": [
        {
          "internalType": "address",
          "name": "owner",
          "type": "address"
        },
        {
          "internalType": "address",
          "name": "operator",
          "type": "address"
        }
      ],
      "name": "isApprovedForAll",
      "outputs": [
        {
          "internalType": "bool",
          "name": "",
          "type": "bool"
        }
      ],
      "stateMutability": "view",
      "type": "function",
      "constant": true
    },
    {
      "inputs": [],
      "name": "metadataURI",
      "outputs": [
        {
          "internalType": "string",
          "name": "",
          "type": "string"
        }
      ],
      "stateMutability": "view",
      "type": "function",
      "constant": true
    },
    {
      "inputs": [],
      "name": "mint_price",
      "outputs": [
        {
          "internalType": "uint256",
          "name": "",
          "type": "uint256"
        }
      ],
      "stateMutability": "view",
      "type": "function",
      "constant": true
    },
    {
      "inputs": [],
      "name": "name",
      "outputs": [
        {
          "internalType": "string",
          "name": "",
          "type": "string"
        }
      ],
      "stateMutability": "view",
      "type": "function",
      "constant": true
    },
    {
      "inputs": [],
      "name": "owner",
      "outputs": [
        {
          "internalType": "address",
          "name": "",
          "type": "address"
        }
      ],
      "stateMutability": "view",
      "type": "function",
      "constant": true
    },
    {
      "inputs": [
        {
          "internalType": "uint256",
          "name": "tokenId",
          "type": "uint256"
        }
      ],
      "name": "ownerOf",
      "outputs": [
        {
          "internalType": "address",
          "name": "",
          "type": "address"
        }
      ],
      "stateMutability": "view",
      "type": "function",
      "constant": true
    },
    {
      "inputs": [],
      "name": "randNonce",
      "outputs": [
        {
          "internalType": "uint256",
          "name": "",
          "type": "uint256"
        }
      ],
      "stateMutability": "view",
      "type": "function",
      "constant": true
    },
    {
      "inputs": [],
      "name": "randomNum",
      "outputs": [
        {
          "internalType": "uint256",
          "name": "",
          "type": "uint256"
        }
      ],
      "stateMutability": "view",
      "type": "function",
      "constant": true
    },
    {
      "inputs": [],
      "name": "renounceOwnership",
      "outputs": [],
      "stateMutability": "nonpayable",
      "type": "function"
    },
    {
      "inputs": [
        {
          "internalType": "address",
          "name": "from",
          "type": "address"
        },
        {
          "internalType": "address",
          "name": "to",
          "type": "address"
        },
        {
          "internalType": "uint256",
          "name": "tokenId",
          "type": "uint256"
        }
      ],
      "name": "safeTransferFrom",
      "outputs": [],
      "stateMutability": "nonpayable",
      "type": "function"
    },
    {
      "inputs": [
        {
          "internalType": "address",
          "name": "from",
          "type": "address"
        },
        {
          "internalType": "address",
          "name": "to",
          "type": "address"
        },
        {
          "internalType": "uint256",
          "name": "tokenId",
          "type": "uint256"
        },
        {
          "internalType": "bytes",
          "name": "_data",
          "type": "bytes"
        }
      ],
      "name": "safeTransferFrom",
      "outputs": [],
      "stateMutability": "nonpayable",
      "type": "function"
    },
    {
      "inputs": [
        {
          "internalType": "address",
          "name": "operator",
          "type": "address"
        },
        {
          "internalType": "bool",
          "name": "approved",
          "type": "bool"
        }
      ],
      "name": "setApprovalForAll",
      "outputs": [],
      "stateMutability": "nonpayable",
      "type": "function"
    },
    {
      "inputs": [
        {
          "internalType": "bytes4",
          "name": "interfaceId",
          "type": "bytes4"
        }
      ],
      "name": "supportsInterface",
      "outputs": [
        {
          "internalType": "bool",
          "name": "",
          "type": "bool"
        }
      ],
      "stateMutability": "view",
      "type": "function",
      "constant": true
    },
    {
      "inputs": [],
      "name": "symbol",
      "outputs": [
        {
          "internalType": "string",
          "name": "",
          "type": "string"
        }
      ],
      "stateMutability": "view",
      "type": "function",
      "constant": true
    },
    {
      "inputs": [
        {
          "internalType": "uint256",
          "name": "index",
          "type": "uint256"
        }
      ],
      "name": "tokenByIndex",
      "outputs": [
        {
          "internalType": "uint256",
          "name": "",
          "type": "uint256"
        }
      ],
      "stateMutability": "view",
      "type": "function",
      "constant": true
    },
    {
      "inputs": [
        {
          "internalType": "address",
          "name": "owner",
          "type": "address"
        },
        {
          "internalType": "uint256",
          "name": "index",
          "type": "uint256"
        }
      ],
      "name": "tokenOfOwnerByIndex",
      "outputs": [
        {
          "internalType": "uint256",
          "name": "",
          "type": "uint256"
        }
      ],
      "stateMutability": "view",
      "type": "function",
      "constant": true
    },
    {
      "inputs": [],
      "name": "totalSupply",
      "outputs": [
        {
          "internalType": "uint256",
          "name": "",
          "type": "uint256"
        }
      ],
      "stateMutability": "view",
      "type": "function",
      "constant": true
    },
    {
      "inputs": [
        {
          "internalType": "address",
          "name": "from",
          "type": "address"
        },
        {
          "internalType": "address",
          "name": "to",
          "type": "address"
        },
        {
          "internalType": "uint256",
          "name": "tokenId",
          "type": "uint256"
        }
      ],
      "name": "transferFrom",
      "outputs": [],
      "stateMutability": "nonpayable",
      "type": "function"
    },
    {
      "inputs": [
        {
          "internalType": "address",
          "name": "newOwner",
          "type": "address"
        }
      ],
      "name": "transferOwnership",
      "outputs": [],
      "stateMutability": "nonpayable",
      "type": "function"
    },
    {
      "inputs": [],
      "name": "cookieMint",
      "outputs": [],
      "stateMutability": "nonpayable",
      "type": "function"
    },
    {
      "inputs": [
        {
          "internalType": "uint256",
          "name": "_tokenId",
          "type": "uint256"
        }
      ],
      "name": "tokenURI",
      "outputs": [
        {
          "internalType": "string",
          "name": "",
          "type": "string"
        }
      ],
      "stateMutability": "view",
      "type": "function",
      "constant": true
    }
  ],
  "bytecode": "0x6080604052600a600c556001600d556006600e55600b600f55601080556015601155601a6012553480156200003357600080fd5b50604051620045723803806200457283398181016040528101906200005991906200042c565b6040518060400160405280600681526020017f636f6f6b656e00000000000000000000000000000000000000000000000000008152506040518060400160405280600381526020017f434f4b00000000000000000000000000000000000000000000000000000000008152508160009081620000d69190620006dd565b508060019081620000e89190620006dd565b5050506200010b620000ff6200016660201b60201c565b6200016e60201b60201c565b81600b60006101000a81548173ffffffffffffffffffffffffffffffffffffffff021916908373ffffffffffffffffffffffffffffffffffffffff16021790555080601590816200015d9190620006dd565b505050620007c4565b600033905090565b6000600a60009054906101000a900473ffffffffffffffffffffffffffffffffffffffff16905081600a60006101000a81548173ffffffffffffffffffffffffffffffffffffffff021916908373ffffffffffffffffffffffffffffffffffffffff1602179055508173ffffffffffffffffffffffffffffffffffffffff168173ffffffffffffffffffffffffffffffffffffffff167f8be0079c531659141344cd1fd0a4f28419497f9722a3daafe3b4186f6b6457e060405160405180910390a35050565b6000604051905090565b600080fd5b600080fd5b600073ffffffffffffffffffffffffffffffffffffffff82169050919050565b6000620002758262000248565b9050919050565b620002878162000268565b81146200029357600080fd5b50565b600081519050620002a7816200027c565b92915050565b600080fd5b600080fd5b6000601f19601f8301169050919050565b7f4e487b7100000000000000000000000000000000000000000000000000000000600052604160045260246000fd5b6200030282620002b7565b810181811067ffffffffffffffff82111715620003245762000323620002c8565b5b80604052505050565b60006200033962000234565b9050620003478282620002f7565b919050565b600067ffffffffffffffff8211156200036a5762000369620002c8565b5b6200037582620002b7565b9050602081019050919050565b60005b83811015620003a257808201518184015260208101905062000385565b60008484015250505050565b6000620003c5620003bf846200034c565b6200032d565b905082815260208101848484011115620003e457620003e3620002b2565b5b620003f184828562000382565b509392505050565b600082601f830112620004115762000410620002ad565b5b815162000423848260208601620003ae565b91505092915050565b600080604083850312156200044657620004456200023e565b5b6000620004568582860162000296565b925050602083015167ffffffffffffffff8111156200047a576200047962000243565b5b6200048885828601620003f9565b9150509250929050565b600081519050919050565b7f4e487b7100000000000000000000000000000000000000000000000000000000600052602260045260246000fd5b60006002820490506001821680620004e557607f821691505b602082108103620004fb57620004fa6200049d565b5b50919050565b60008190508160005260206000209050919050565b60006020601f8301049050919050565b600082821b905092915050565b600060088302620005657fffffffffffffffffffffffffffffffffffffffffffffffffffffffffffffffff8262000526565b62000571868362000526565b95508019841693508086168417925050509392505050565b6000819050919050565b6000819050919050565b6000620005be620005b8620005b28462000589565b62000593565b62000589565b9050919050565b6000819050919050565b620005da836200059d565b620005f2620005e982620005c5565b84845462000533565b825550505050565b600090565b62000609620005fa565b62000616818484620005cf565b505050565b5b818110156200063e5762000632600082620005ff565b6001810190506200061c565b5050565b601f8211156200068d57620006578162000501565b620006628462000516565b8101602085101562000672578190505b6200068a620006818562000516565b8301826200061b565b50505b505050565b600082821c905092915050565b6000620006b26000198460080262000692565b1980831691505092915050565b6000620006cd83836200069f565b9150826002028217905092915050565b620006e88262000492565b67ffffffffffffffff811115620007045762000703620002c8565b5b620007108254620004cc565b6200071d82828562000642565b600060209050601f83116001811462000755576000841562000740578287015190505b6200074c8582620006bf565b865550620007bc565b601f198416620007658662000501565b60005b828110156200078f5784890151825560018201915060208501945060208101905062000768565b86831015620007af5784890151620007ab601f8916826200069f565b8355505b6001600288020188555050505b505050505050565b613d9e80620007d46000396000f3fe608060405234801561001057600080fd5b50600436106101ee5760003560e01c80634f6ccce71161010f578063a22cb465116100a2578063c87b56dd11610071578063c87b56dd14610575578063e985e9c5146105a5578063f2fde38b146105d5578063f630aa65146105f1576101ee565b8063a22cb46514610501578063a31498651461051d578063b200107c1461053b578063b88d4fde14610559576101ee565b806370a08231116100de57806370a082311461048b578063715018a6146104bb5780638da5cb5b146104c557806395d89b41146104e3576101ee565b80634f6ccce7146103ef57806361e013561461041f5780636352211e1461043d5780636e1a1e811461046d576101ee565b806318160ddd116101875780632f745c59116101565780632f745c5914610367578063323c59c4146103975780633337f6f2146103b557806342842e0e146103d3576101ee565b806318160ddd146102f15780631a4231a41461030f57806323b872dd1461032d5780632c05a06a14610349576101ee565b806306fdde03116101c357806306fdde0314610269578063081812fc14610287578063095ea7b3146102b757806315ce6291146102d3576101ee565b806296525a146101f3578062e7afc81461021157806301ffc9a71461021b57806303ee438c1461024b575b600080fd5b6101fb61060f565b60405161020891906125d5565b60405180910390f35b610219610615565b005b6102356004803603810190610230919061265c565b6106da565b60405161024291906126a4565b60405180910390f35b610253610754565b604051610260919061274f565b60405180910390f35b6102716107e2565b60405161027e919061274f565b60405180910390f35b6102a1600480360381019061029c919061279d565b610874565b6040516102ae919061280b565b60405180910390f35b6102d160048036038101906102cc9190612852565b6108f9565b005b6102db610a10565b6040516102e891906125d5565b60405180910390f35b6102f9610a16565b60405161030691906125d5565b60405180910390f35b610317610a23565b60405161032491906125d5565b60405180910390f35b61034760048036038101906103429190612892565b610a29565b005b610351610a89565b60405161035e91906125d5565b60405180910390f35b610381600480360381019061037c9190612852565b610a8f565b60405161038e91906125d5565b60405180910390f35b61039f610b34565b6040516103ac91906125d5565b60405180910390f35b6103bd610b3a565b6040516103ca9190612944565b60405180910390f35b6103ed60048036038101906103e89190612892565b610b60565b005b6104096004803603810190610404919061279d565b610b80565b60405161041691906125d5565b60405180910390f35b610427610bf1565b60405161043491906125d5565b60405180910390f35b6104576004803603810190610452919061279d565b610bf7565b604051610464919061280b565b60405180910390f35b610475610ca8565b60405161048291906125d5565b60405180910390f35b6104a560048036038101906104a0919061295f565b610cad565b6040516104b291906125d5565b60405180910390f35b6104c3610d64565b005b6104cd610dec565b6040516104da919061280b565b60405180910390f35b6104eb610e16565b6040516104f8919061274f565b60405180910390f35b61051b600480360381019061051691906129b8565b610ea8565b005b610525610ebe565b60405161053291906125d5565b60405180910390f35b610543610ec4565b60405161055091906125d5565b60405180910390f35b610573600480360381019061056e9190612b2d565b610eca565b005b61058f600480360381019061058a919061279d565b610f2c565b60405161059c919061274f565b60405180910390f35b6105bf60048036038101906105ba9190612bb0565b610f66565b6040516105cc91906126a4565b60405180910390f35b6105ef60048036038101906105ea919061295f565b610ffa565b005b6105f96110f1565b60405161060691906125d5565b60405180910390f35b60105481565b61061d610a16565b601e101561062a57600080fd5b600b60009054906101000a900473ffffffffffffffffffffffffffffffffffffffff1673ffffffffffffffffffffffffffffffffffffffff166323b872dd3330600c546040518463ffffffff1660e01b815260040161068b93929190612bf0565b6020604051808303816000875af11580156106aa573d6000803e3d6000fd5b505050506040513d601f19601f820116820180604052508101906106ce9190612c3c565b506106d8336110f7565b565b60007f780e9d63000000000000000000000000000000000000000000000000000000007bffffffffffffffffffffffffffffffffffffffffffffffffffffffff1916827bffffffffffffffffffffffffffffffffffffffffffffffffffffffff1916148061074d575061074c826111e5565b5b9050919050565b6015805461076190612c98565b80601f016020809104026020016040519081016040528092919081815260200182805461078d90612c98565b80156107da5780601f106107af576101008083540402835291602001916107da565b820191906000526020600020905b8154815290600101906020018083116107bd57829003601f168201915b505050505081565b6060600080546107f190612c98565b80601f016020809104026020016040519081016040528092919081815260200182805461081d90612c98565b801561086a5780601f1061083f5761010080835404028352916020019161086a565b820191906000526020600020905b81548152906001019060200180831161084d57829003601f168201915b5050505050905090565b600061087f826112c7565b6108be576040517f08c379a00000000000000000000000000000000000000000000000000000000081526004016108b590612d3b565b60405180910390fd5b6004600083815260200190815260200160002060009054906101000a900473ffffffffffffffffffffffffffffffffffffffff169050919050565b600061090482610bf7565b90508073ffffffffffffffffffffffffffffffffffffffff168373ffffffffffffffffffffffffffffffffffffffff1603610974576040517f08c379a000000000000000000000000000000000000000000000000000000000815260040161096b90612dcd565b60405180910390fd5b8073ffffffffffffffffffffffffffffffffffffffff16610993611333565b73ffffffffffffffffffffffffffffffffffffffff1614806109c257506109c1816109bc611333565b610f66565b5b610a01576040517f08c379a00000000000000000000000000000000000000000000000000000000081526004016109f890612e5f565b60405180910390fd5b610a0b838361133b565b505050565b60125481565b6000600880549050905090565b600c5481565b610a3a610a34611333565b826113f4565b610a79576040517f08c379a0000000000000000000000000000000000000000000000000000000008152600401610a7090612ef1565b60405180910390fd5b610a848383836114d2565b505050565b600f5481565b6000610a9a83610cad565b8210610adb576040517f08c379a0000000000000000000000000000000000000000000000000000000008152600401610ad290612f83565b60405180910390fd5b600660008473ffffffffffffffffffffffffffffffffffffffff1673ffffffffffffffffffffffffffffffffffffffff168152602001908152602001600020600083815260200190815260200160002054905092915050565b600d5481565b600b60009054906101000a900473ffffffffffffffffffffffffffffffffffffffff1681565b610b7b83838360405180602001604052806000815250610eca565b505050565b6000610b8a610a16565b8210610bcb576040517f08c379a0000000000000000000000000000000000000000000000000000000008152600401610bc290613015565b60405180910390fd5b60088281548110610bdf57610bde613035565b5b90600052602060002001549050919050565b60145481565b6000806002600084815260200190815260200160002060009054906101000a900473ffffffffffffffffffffffffffffffffffffffff169050600073ffffffffffffffffffffffffffffffffffffffff168173ffffffffffffffffffffffffffffffffffffffff1603610c9f576040517f08c379a0000000000000000000000000000000000000000000000000000000008152600401610c96906130d6565b60405180910390fd5b80915050919050565b601e81565b60008073ffffffffffffffffffffffffffffffffffffffff168273ffffffffffffffffffffffffffffffffffffffff1603610d1d576040517f08c379a0000000000000000000000000000000000000000000000000000000008152600401610d1490613168565b60405180910390fd5b600360008373ffffffffffffffffffffffffffffffffffffffff1673ffffffffffffffffffffffffffffffffffffffff168152602001908152602001600020549050919050565b610d6c611333565b73ffffffffffffffffffffffffffffffffffffffff16610d8a610dec565b73ffffffffffffffffffffffffffffffffffffffff1614610de0576040517f08c379a0000000000000000000000000000000000000000000000000000000008152600401610dd7906131d4565b60405180910390fd5b610dea6000611738565b565b6000600a60009054906101000a900473ffffffffffffffffffffffffffffffffffffffff16905090565b606060018054610e2590612c98565b80601f0160208091040260200160405190810160405280929190818152602001828054610e5190612c98565b8015610e9e5780601f10610e7357610100808354040283529160200191610e9e565b820191906000526020600020905b815481529060010190602001808311610e8157829003601f168201915b5050505050905090565b610eba610eb3611333565b83836117fe565b5050565b60115481565b600e5481565b610edb610ed5611333565b836113f4565b610f1a576040517f08c379a0000000000000000000000000000000000000000000000000000000008152600401610f1190612ef1565b60405180910390fd5b610f268484848461196a565b50505050565b60606000610f39836119c6565b9050601581604051602001610f4f929190613360565b604051602081830303815290604052915050919050565b6000600560008473ffffffffffffffffffffffffffffffffffffffff1673ffffffffffffffffffffffffffffffffffffffff16815260200190815260200160002060008373ffffffffffffffffffffffffffffffffffffffff1673ffffffffffffffffffffffffffffffffffffffff16815260200190815260200160002060009054906101000a900460ff16905092915050565b611002611333565b73ffffffffffffffffffffffffffffffffffffffff16611020610dec565b73ffffffffffffffffffffffffffffffffffffffff1614611076576040517f08c379a000000000000000000000000000000000000000000000000000000000815260040161106d906131d4565b60405180910390fd5b600073ffffffffffffffffffffffffffffffffffffffff168173ffffffffffffffffffffffffffffffffffffffff16036110e5576040517f08c379a00000000000000000000000000000000000000000000000000000000081526004016110dc9061340c565b60405180910390fd5b6110ee81611738565b50565b60135481565b6014600081548092919061110a9061345b565b91905055506103e842826014546040516020016111299392919061350c565b6040516020818303038152906040528051906020012060001c61114c9190613578565b6013819055506013546103e31161116a57611165611b26565b6111e2565b6013546103ca116111825761117d611b92565b6111e1565b6013546103841161119a57611195611bfe565b6111e0565b601354610320116111b2576111ad611c6a565b6111df565b601354610258116111ca576111c5611cd5565b6111de565b6013546000116111dd576111dc611d41565b5b5b5b5b5b5b50565b60007f80ac58cd000000000000000000000000000000000000000000000000000000007bffffffffffffffffffffffffffffffffffffffffffffffffffffffff1916827bffffffffffffffffffffffffffffffffffffffffffffffffffffffff191614806112b057507f5b5e139f000000000000000000000000000000000000000000000000000000007bffffffffffffffffffffffffffffffffffffffffffffffffffffffff1916827bffffffffffffffffffffffffffffffffffffffffffffffffffffffff1916145b806112c057506112bf82611dad565b5b9050919050565b60008073ffffffffffffffffffffffffffffffffffffffff166002600084815260200190815260200160002060009054906101000a900473ffffffffffffffffffffffffffffffffffffffff1673ffffffffffffffffffffffffffffffffffffffff1614159050919050565b600033905090565b816004600083815260200190815260200160002060006101000a81548173ffffffffffffffffffffffffffffffffffffffff021916908373ffffffffffffffffffffffffffffffffffffffff160217905550808273ffffffffffffffffffffffffffffffffffffffff166113ae83610bf7565b73ffffffffffffffffffffffffffffffffffffffff167f8c5be1e5ebec7d5bd14f71427d1e84f3dd0314c0f7b2291e5b200ac8c7c3b92560405160405180910390a45050565b60006113ff826112c7565b61143e576040517f08c379a00000000000000000000000000000000000000000000000000000000081526004016114359061361b565b60405180910390fd5b600061144983610bf7565b90508073ffffffffffffffffffffffffffffffffffffffff168473ffffffffffffffffffffffffffffffffffffffff16148061148b575061148a8185610f66565b5b806114c957508373ffffffffffffffffffffffffffffffffffffffff166114b184610874565b73ffffffffffffffffffffffffffffffffffffffff16145b91505092915050565b8273ffffffffffffffffffffffffffffffffffffffff166114f282610bf7565b73ffffffffffffffffffffffffffffffffffffffff1614611548576040517f08c379a000000000000000000000000000000000000000000000000000000000815260040161153f906136ad565b60405180910390fd5b600073ffffffffffffffffffffffffffffffffffffffff168273ffffffffffffffffffffffffffffffffffffffff16036115b7576040517f08c379a00000000000000000000000000000000000000000000000000000000081526004016115ae9061373f565b60405180910390fd5b6115c2838383611e17565b6115cd60008261133b565b6001600360008573ffffffffffffffffffffffffffffffffffffffff1673ffffffffffffffffffffffffffffffffffffffff168152602001908152602001600020600082825461161d919061375f565b925050819055506001600360008473ffffffffffffffffffffffffffffffffffffffff1673ffffffffffffffffffffffffffffffffffffffff16815260200190815260200160002060008282546116749190613793565b92505081905550816002600083815260200190815260200160002060006101000a81548173ffffffffffffffffffffffffffffffffffffffff021916908373ffffffffffffffffffffffffffffffffffffffff160217905550808273ffffffffffffffffffffffffffffffffffffffff168473ffffffffffffffffffffffffffffffffffffffff167fddf252ad1be2c89b69c2b068fc378daa952ba7f163c4a11628f55a4df523b3ef60405160405180910390a4611733838383611f29565b505050565b6000600a60009054906101000a900473ffffffffffffffffffffffffffffffffffffffff16905081600a60006101000a81548173ffffffffffffffffffffffffffffffffffffffff021916908373ffffffffffffffffffffffffffffffffffffffff1602179055508173ffffffffffffffffffffffffffffffffffffffff168173ffffffffffffffffffffffffffffffffffffffff167f8be0079c531659141344cd1fd0a4f28419497f9722a3daafe3b4186f6b6457e060405160405180910390a35050565b8173ffffffffffffffffffffffffffffffffffffffff168373ffffffffffffffffffffffffffffffffffffffff160361186c576040517f08c379a000000000000000000000000000000000000000000000000000000000815260040161186390613813565b60405180910390fd5b80600560008573ffffffffffffffffffffffffffffffffffffffff1673ffffffffffffffffffffffffffffffffffffffff16815260200190815260200160002060008473ffffffffffffffffffffffffffffffffffffffff1673ffffffffffffffffffffffffffffffffffffffff16815260200190815260200160002060006101000a81548160ff0219169083151502179055508173ffffffffffffffffffffffffffffffffffffffff168373ffffffffffffffffffffffffffffffffffffffff167f17307eab39ab6107e8899845ad3d59bd9653f200f220920489ca2b5937696c318360405161195d91906126a4565b60405180910390a3505050565b6119758484846114d2565b61198184848484611f2e565b6119c0576040517f08c379a00000000000000000000000000000000000000000000000000000000081526004016119b7906138a5565b60405180910390fd5b50505050565b606060008203611a0d576040518060400160405280600181526020017f30000000000000000000000000000000000000000000000000000000000000008152509050611b21565b600082905060005b60008214611a3f578080611a289061345b565b915050600a82611a3891906138c5565b9150611a15565b60008167ffffffffffffffff811115611a5b57611a5a612a02565b5b6040519080825280601f01601f191660200182016040528015611a8d5781602001600182028036833780820191505090505b5090505b60008514611b1a57600182611aa6919061375f565b9150600a85611ab59190613578565b6030611ac19190613793565b60f81b818381518110611ad757611ad6613035565b5b60200101907effffffffffffffffffffffffffffffffffffffffffffffffffffffffffffff1916908160001a905350600a85611b1391906138c5565b9450611a91565b8093505050505b919050565b601e6012541115611b6c576040517f08c379a0000000000000000000000000000000000000000000000000000000008152600401611b6390613942565b60405180910390fd5b611b78336012546120b5565b60126000815480929190611b8b9061345b565b9190505550565b60196011541115611bd8576040517f08c379a0000000000000000000000000000000000000000000000000000000008152600401611bcf906139ae565b60405180910390fd5b611be4336011546120b5565b60116000815480929190611bf79061345b565b9190505550565b60146010541115611c44576040517f08c379a0000000000000000000000000000000000000000000000000000000008152600401611c3b90613a1a565b60405180910390fd5b611c50336010546120b5565b60106000815480929190611c639061345b565b9190505550565b600f80541115611caf576040517f08c379a0000000000000000000000000000000000000000000000000000000008152600401611ca690613a86565b60405180910390fd5b611cbb33600f546120b5565b600f6000815480929190611cce9061345b565b9190505550565b600a600e541115611d1b576040517f08c379a0000000000000000000000000000000000000000000000000000000008152600401611d1290613af2565b60405180910390fd5b611d2733600e546120b5565b600e6000815480929190611d3a9061345b565b9190505550565b6005600d541115611d87576040517f08c379a0000000000000000000000000000000000000000000000000000000008152600401611d7e90613b5e565b60405180910390fd5b611d9333600d546120b5565b600d6000815480929190611da69061345b565b9190505550565b60007f01ffc9a7000000000000000000000000000000000000000000000000000000007bffffffffffffffffffffffffffffffffffffffffffffffffffffffff1916827bffffffffffffffffffffffffffffffffffffffffffffffffffffffff1916149050919050565b611e2283838361228e565b600073ffffffffffffffffffffffffffffffffffffffff168373ffffffffffffffffffffffffffffffffffffffff1603611e6457611e5f81612293565b611ea3565b8173ffffffffffffffffffffffffffffffffffffffff168373ffffffffffffffffffffffffffffffffffffffff1614611ea257611ea183826122dc565b5b5b600073ffffffffffffffffffffffffffffffffffffffff168273ffffffffffffffffffffffffffffffffffffffff1603611ee557611ee081612449565b611f24565b8273ffffffffffffffffffffffffffffffffffffffff168273ffffffffffffffffffffffffffffffffffffffff1614611f2357611f22828261251a565b5b5b505050565b505050565b6000611f4f8473ffffffffffffffffffffffffffffffffffffffff16612599565b156120a8578373ffffffffffffffffffffffffffffffffffffffff1663150b7a02611f78611333565b8786866040518563ffffffff1660e01b8152600401611f9a9493929190613bd3565b6020604051808303816000875af1925050508015611fd657506040513d601f19601f82011682018060405250810190611fd39190613c34565b60015b612058573d8060008114612006576040519150601f19603f3d011682016040523d82523d6000602084013e61200b565b606091505b506000815103612050576040517f08c379a0000000000000000000000000000000000000000000000000000000008152600401612047906138a5565b60405180910390fd5b805181602001fd5b63150b7a0260e01b7bffffffffffffffffffffffffffffffffffffffffffffffffffffffff1916817bffffffffffffffffffffffffffffffffffffffffffffffffffffffff1916149150506120ad565b600190505b949350505050565b600073ffffffffffffffffffffffffffffffffffffffff168273ffffffffffffffffffffffffffffffffffffffff1603612124576040517f08c379a000000000000000000000000000000000000000000000000000000000815260040161211b90613cad565b60405180910390fd5b61212d816112c7565b1561216d576040517f08c379a000000000000000000000000000000000000000000000000000000000815260040161216490613d19565b60405180910390fd5b61217960008383611e17565b6001600360008473ffffffffffffffffffffffffffffffffffffffff1673ffffffffffffffffffffffffffffffffffffffff16815260200190815260200160002060008282546121c99190613793565b92505081905550816002600083815260200190815260200160002060006101000a81548173ffffffffffffffffffffffffffffffffffffffff021916908373ffffffffffffffffffffffffffffffffffffffff160217905550808273ffffffffffffffffffffffffffffffffffffffff16600073ffffffffffffffffffffffffffffffffffffffff167fddf252ad1be2c89b69c2b068fc378daa952ba7f163c4a11628f55a4df523b3ef60405160405180910390a461228a60008383611f29565b5050565b505050565b6008805490506009600083815260200190815260200160002081905550600881908060018154018082558091505060019003906000526020600020016000909190919091505550565b600060016122e984610cad565b6122f3919061375f565b90506000600760008481526020019081526020016000205490508181146123d8576000600660008673ffffffffffffffffffffffffffffffffffffffff1673ffffffffffffffffffffffffffffffffffffffff168152602001908152602001600020600084815260200190815260200160002054905080600660008773ffffffffffffffffffffffffffffffffffffffff1673ffffffffffffffffffffffffffffffffffffffff168152602001908152602001600020600084815260200190815260200160002081905550816007600083815260200190815260200160002081905550505b6007600084815260200190815260200160002060009055600660008573ffffffffffffffffffffffffffffffffffffffff1673ffffffffffffffffffffffffffffffffffffffff16815260200190815260200160002060008381526020019081526020016000206000905550505050565b6000600160088054905061245d919061375f565b905060006009600084815260200190815260200160002054905060006008838154811061248d5761248c613035565b5b9060005260206000200154905080600883815481106124af576124ae613035565b5b9060005260206000200181905550816009600083815260200190815260200160002081905550600960008581526020019081526020016000206000905560088054806124fe576124fd613d39565b5b6001900381819060005260206000200160009055905550505050565b600061252583610cad565b905081600660008573ffffffffffffffffffffffffffffffffffffffff1673ffffffffffffffffffffffffffffffffffffffff168152602001908152602001600020600083815260200190815260200160002081905550806007600084815260200190815260200160002081905550505050565b6000808273ffffffffffffffffffffffffffffffffffffffff163b119050919050565b6000819050919050565b6125cf816125bc565b82525050565b60006020820190506125ea60008301846125c6565b92915050565b6000604051905090565b600080fd5b600080fd5b60007fffffffff0000000000000000000000000000000000000000000000000000000082169050919050565b61263981612604565b811461264457600080fd5b50565b60008135905061265681612630565b92915050565b600060208284031215612672576126716125fa565b5b600061268084828501612647565b91505092915050565b60008115159050919050565b61269e81612689565b82525050565b60006020820190506126b96000830184612695565b92915050565b600081519050919050565b600082825260208201905092915050565b60005b838110156126f95780820151818401526020810190506126de565b60008484015250505050565b6000601f19601f8301169050919050565b6000612721826126bf565b61272b81856126ca565b935061273b8185602086016126db565b61274481612705565b840191505092915050565b600060208201905081810360008301526127698184612716565b905092915050565b61277a816125bc565b811461278557600080fd5b50565b60008135905061279781612771565b92915050565b6000602082840312156127b3576127b26125fa565b5b60006127c184828501612788565b91505092915050565b600073ffffffffffffffffffffffffffffffffffffffff82169050919050565b60006127f5826127ca565b9050919050565b612805816127ea565b82525050565b600060208201905061282060008301846127fc565b92915050565b61282f816127ea565b811461283a57600080fd5b50565b60008135905061284c81612826565b92915050565b60008060408385031215612869576128686125fa565b5b60006128778582860161283d565b925050602061288885828601612788565b9150509250929050565b6000806000606084860312156128ab576128aa6125fa565b5b60006128b98682870161283d565b93505060206128ca8682870161283d565b92505060406128db86828701612788565b9150509250925092565b6000819050919050565b600061290a612905612900846127ca565b6128e5565b6127ca565b9050919050565b600061291c826128ef565b9050919050565b600061292e82612911565b9050919050565b61293e81612923565b82525050565b60006020820190506129596000830184612935565b92915050565b600060208284031215612975576129746125fa565b5b60006129838482850161283d565b91505092915050565b61299581612689565b81146129a057600080fd5b50565b6000813590506129b28161298c565b92915050565b600080604083850312156129cf576129ce6125fa565b5b60006129dd8582860161283d565b92505060206129ee858286016129a3565b9150509250929050565b600080fd5b600080fd5b7f4e487b7100000000000000000000000000000000000000000000000000000000600052604160045260246000fd5b612a3a82612705565b810181811067ffffffffffffffff82111715612a5957612a58612a02565b5b80604052505050565b6000612a6c6125f0565b9050612a788282612a31565b919050565b600067ffffffffffffffff821115612a9857612a97612a02565b5b612aa182612705565b9050602081019050919050565b82818337600083830152505050565b6000612ad0612acb84612a7d565b612a62565b905082815260208101848484011115612aec57612aeb6129fd565b5b612af7848285612aae565b509392505050565b600082601f830112612b1457612b136129f8565b5b8135612b24848260208601612abd565b91505092915050565b60008060008060808587031215612b4757612b466125fa565b5b6000612b558782880161283d565b9450506020612b668782880161283d565b9350506040612b7787828801612788565b925050606085013567ffffffffffffffff811115612b9857612b976125ff565b5b612ba487828801612aff565b91505092959194509250565b60008060408385031215612bc757612bc66125fa565b5b6000612bd58582860161283d565b9250506020612be68582860161283d565b9150509250929050565b6000606082019050612c0560008301866127fc565b612c1260208301856127fc565b612c1f60408301846125c6565b949350505050565b600081519050612c368161298c565b92915050565b600060208284031215612c5257612c516125fa565b5b6000612c6084828501612c27565b91505092915050565b7f4e487b7100000000000000000000000000000000000000000000000000000000600052602260045260246000fd5b60006002820490506001821680612cb057607f821691505b602082108103612cc357612cc2612c69565b5b50919050565b7f4552433732313a20617070726f76656420717565727920666f72206e6f6e657860008201527f697374656e7420746f6b656e0000000000000000000000000000000000000000602082015250565b6000612d25602c836126ca565b9150612d3082612cc9565b604082019050919050565b60006020820190508181036000830152612d5481612d18565b9050919050565b7f4552433732313a20617070726f76616c20746f2063757272656e74206f776e6560008201527f7200000000000000000000000000000000000000000000000000000000000000602082015250565b6000612db76021836126ca565b9150612dc282612d5b565b604082019050919050565b60006020820190508181036000830152612de681612daa565b9050919050565b7f4552433732313a20617070726f76652063616c6c6572206973206e6f74206f7760008201527f6e6572206e6f7220617070726f76656420666f7220616c6c0000000000000000602082015250565b6000612e496038836126ca565b9150612e5482612ded565b604082019050919050565b60006020820190508181036000830152612e7881612e3c565b9050919050565b7f4552433732313a207472616e736665722063616c6c6572206973206e6f74206f60008201527f776e6572206e6f7220617070726f766564000000000000000000000000000000602082015250565b6000612edb6031836126ca565b9150612ee682612e7f565b604082019050919050565b60006020820190508181036000830152612f0a81612ece565b9050919050565b7f455243373231456e756d657261626c653a206f776e657220696e646578206f7560008201527f74206f6620626f756e6473000000000000000000000000000000000000000000602082015250565b6000612f6d602b836126ca565b9150612f7882612f11565b604082019050919050565b60006020820190508181036000830152612f9c81612f60565b9050919050565b7f455243373231456e756d657261626c653a20676c6f62616c20696e646578206f60008201527f7574206f6620626f756e64730000000000000000000000000000000000000000602082015250565b6000612fff602c836126ca565b915061300a82612fa3565b604082019050919050565b6000602082019050818103600083015261302e81612ff2565b9050919050565b7f4e487b7100000000000000000000000000000000000000000000000000000000600052603260045260246000fd5b7f4552433732313a206f776e657220717565727920666f72206e6f6e657869737460008201527f656e7420746f6b656e0000000000000000000000000000000000000000000000602082015250565b60006130c06029836126ca565b91506130cb82613064565b604082019050919050565b600060208201905081810360008301526130ef816130b3565b9050919050565b7f4552433732313a2062616c616e636520717565727920666f7220746865207a6560008201527f726f206164647265737300000000000000000000000000000000000000000000602082015250565b6000613152602a836126ca565b915061315d826130f6565b604082019050919050565b6000602082019050818103600083015261318181613145565b9050919050565b7f4f776e61626c653a2063616c6c6572206973206e6f7420746865206f776e6572600082015250565b60006131be6020836126ca565b91506131c982613188565b602082019050919050565b600060208201905081810360008301526131ed816131b1565b9050919050565b600081905092915050565b60008190508160005260206000209050919050565b6000815461322181612c98565b61322b81866131f4565b94506001821660008114613246576001811461325b5761328e565b60ff198316865281151582028601935061328e565b613264856131ff565b60005b8381101561328657815481890152600182019150602081019050613267565b838801955050505b50505092915050565b7f2f00000000000000000000000000000000000000000000000000000000000000600082015250565b60006132cd6001836131f4565b91506132d882613297565b600182019050919050565b60006132ee826126bf565b6132f881856131f4565b93506133088185602086016126db565b80840191505092915050565b7f2e6a736f6e000000000000000000000000000000000000000000000000000000600082015250565b600061334a6005836131f4565b915061335582613314565b600582019050919050565b600061336c8285613214565b9150613377826132c0565b915061338382846132e3565b915061338e8261333d565b91508190509392505050565b7f4f776e61626c653a206e6577206f776e657220697320746865207a65726f206160008201527f6464726573730000000000000000000000000000000000000000000000000000602082015250565b60006133f66026836126ca565b91506134018261339a565b604082019050919050565b60006020820190508181036000830152613425816133e9565b9050919050565b7f4e487b7100000000000000000000000000000000000000000000000000000000600052601160045260246000fd5b6000613466826125bc565b91507fffffffffffffffffffffffffffffffffffffffffffffffffffffffffffffffff82036134985761349761342c565b5b600182019050919050565b6000819050919050565b6134be6134b9826125bc565b6134a3565b82525050565b60008160601b9050919050565b60006134dc826134c4565b9050919050565b60006134ee826134d1565b9050919050565b613506613501826127ea565b6134e3565b82525050565b600061351882866134ad565b60208201915061352882856134f5565b60148201915061353882846134ad565b602082019150819050949350505050565b7f4e487b7100000000000000000000000000000000000000000000000000000000600052601260045260246000fd5b6000613583826125bc565b915061358e836125bc565b92508261359e5761359d613549565b5b828206905092915050565b7f4552433732313a206f70657261746f7220717565727920666f72206e6f6e657860008201527f697374656e7420746f6b656e0000000000000000000000000000000000000000602082015250565b6000613605602c836126ca565b9150613610826135a9565b604082019050919050565b60006020820190508181036000830152613634816135f8565b9050919050565b7f4552433732313a207472616e736665722066726f6d20696e636f72726563742060008201527f6f776e6572000000000000000000000000000000000000000000000000000000602082015250565b60006136976025836126ca565b91506136a28261363b565b604082019050919050565b600060208201905081810360008301526136c68161368a565b9050919050565b7f4552433732313a207472616e7366657220746f20746865207a65726f2061646460008201527f7265737300000000000000000000000000000000000000000000000000000000602082015250565b60006137296024836126ca565b9150613734826136cd565b604082019050919050565b600060208201905081810360008301526137588161371c565b9050919050565b600061376a826125bc565b9150613775836125bc565b925082820390508181111561378d5761378c61342c565b5b92915050565b600061379e826125bc565b91506137a9836125bc565b92508282019050808211156137c1576137c061342c565b5b92915050565b7f4552433732313a20617070726f766520746f2063616c6c657200000000000000600082015250565b60006137fd6019836126ca565b9150613808826137c7565b602082019050919050565b6000602082019050818103600083015261382c816137f0565b9050919050565b7f4552433732313a207472616e7366657220746f206e6f6e20455243373231526560008201527f63656976657220696d706c656d656e7465720000000000000000000000000000602082015250565b600061388f6032836126ca565b915061389a82613833565b604082019050919050565b600060208201905081810360008301526138be81613882565b9050919050565b60006138d0826125bc565b91506138db836125bc565b9250826138eb576138ea613549565b5b828204905092915050565b7f4c6567656e6461727920736f6c64206f75740000000000000000000000000000600082015250565b600061392c6012836126ca565b9150613937826138f6565b602082019050919050565b6000602082019050818103600083015261395b8161391f565b9050919050565b7f4570696320736f6c64206f757400000000000000000000000000000000000000600082015250565b6000613998600d836126ca565b91506139a382613962565b602082019050919050565b600060208201905081810360008301526139c78161398b565b9050919050565b7f556e6971756520736f6c64206f75740000000000000000000000000000000000600082015250565b6000613a04600f836126ca565b9150613a0f826139ce565b602082019050919050565b60006020820190508181036000830152613a33816139f7565b9050919050565b7f5261726520736f6c64206f757400000000000000000000000000000000000000600082015250565b6000613a70600d836126ca565b9150613a7b82613a3a565b602082019050919050565b60006020820190508181036000830152613a9f81613a63565b9050919050565b7f4d6167696320736f6c64206f7574000000000000000000000000000000000000600082015250565b6000613adc600e836126ca565b9150613ae782613aa6565b602082019050919050565b60006020820190508181036000830152613b0b81613acf565b9050919050565b7f436f6d6d6f6e20736f6c64206f75740000000000000000000000000000000000600082015250565b6000613b48600f836126ca565b9150613b5382613b12565b602082019050919050565b60006020820190508181036000830152613b7781613b3b565b9050919050565b600081519050919050565b600082825260208201905092915050565b6000613ba582613b7e565b613baf8185613b89565b9350613bbf8185602086016126db565b613bc881612705565b840191505092915050565b6000608082019050613be860008301876127fc565b613bf560208301866127fc565b613c0260408301856125c6565b8181036060830152613c148184613b9a565b905095945050505050565b600081519050613c2e81612630565b92915050565b600060208284031215613c4a57613c496125fa565b5b6000613c5884828501613c1f565b91505092915050565b7f4552433732313a206d696e7420746f20746865207a65726f2061646472657373600082015250565b6000613c976020836126ca565b9150613ca282613c61565b602082019050919050565b60006020820190508181036000830152613cc681613c8a565b9050919050565b7f4552433732313a20746f6b656e20616c7265616479206d696e74656400000000600082015250565b6000613d03601c836126ca565b9150613d0e82613ccd565b602082019050919050565b60006020820190508181036000830152613d3281613cf6565b9050919050565b7f4e487b7100000000000000000000000000000000000000000000000000000000600052603160045260246000fdfea2646970667358221220434a4c133c6a73251453fbe98a7fdac283b413dec6adc646e187f8c00fff4c2964736f6c63430008110033",
  "immutableReferences": {},
  "source": "// SPDX-License-Identifier: MIT\npragma solidity ^0.8.17;\n\n\nimport \"../node_modules/openzeppelin-solidity/contracts/token/ERC721/extensions/ERC721Enumerable.sol\";\nimport \"../node_modules/openzeppelin-solidity/contracts/access/Ownable.sol\";\n// import \"openzeppelin-solidity/contracts/token/ERC20/IERC20.sol\";\nimport \"./CookieToken.sol\";\n\ncontract MintNft is ERC721Enumerable, Ownable {\n\n    CookieToken public cookieT;\n\n    uint constant public MAX_NFT_COUNT = 30;\n\n    uint public mint_price = 10;\n\n    uint public Common = 1;\n    uint public Magic = 6;\n    uint public Rare = 11;\n    uint public Unique = 16;\n    uint public Epic = 21;\n    uint public Legendary = 26;\n\n    uint public randomNum;\n    uint public randNonce;\n\n    string public metadataURI;\n\n    constructor(address _tokenAddress, string memory _metadataURI) ERC721(\"cooken\", \"COK\") {\n        cookieT = CookieToken(_tokenAddress);\n        metadataURI = _metadataURI;\n    }\n\n    //  \n    function cookieMint() public {\n        require(MAX_NFT_COUNT >= totalSupply());\n\n        cookieT.transferFrom(msg.sender, address(this), mint_price);\n\n        getRandomTokenData(msg.sender);\n    }\n\n      //  \n    function getRandomTokenData(address _owner) internal {\n        randNonce++;\n        // uint randomNum = uint(keccak256(abi.encodePacked(_owner, randNonce))) % 1000;\n        randomNum = uint(keccak256(abi.encodePacked(block.timestamp, _owner, randNonce))) % 1000;\n\n        if( 995 <= randomNum ){\n            _legendary();\n        }\n        else if(970 <= randomNum) {\n            _epic();\n        }\n        else if(900 <= randomNum) {\n            _unique();\n        }\n        else if( 800 <= randomNum) {\n            _rare();\n        }\n        else if( 600 <= randomNum) {\n            _magic();\n        }\n        else if( 0 <= randomNum) {\n            _common();\n        }\n    }\n    \n    //    \n    //          !\n    function _legendary() private {\n        require(Legendary <= 30, \"Legendary sold out\"); // 26~30\n        _mint(msg.sender,Legendary);\n        Legendary++;\n    }\n    function _epic() private {\n        require(Epic <= 25,\"Epic sold out\"); // 21~25\n        _mint(msg.sender,Epic);\n        Epic++;\n    }\n    function _unique() private {\n        require(Unique <= 20,\"Unique sold out\"); // 16~20\n        _mint(msg.sender,Unique);\n        Unique++;\n    }\n    function _rare() private {\n        require(Rare <= 15,\"Rare sold out\"); // 10~15\n        _mint(msg.sender,Rare);\n        Rare++;\n    }\n    function _magic() private {\n        require(Magic <= 10,\"Magic sold out\"); // 6~10\n        _mint(msg.sender,Magic);\n        Magic++;\n    }\n    function _common() private {\n        require(Common <= 5,\"Common sold out\"); // 1~5\n        _mint(msg.sender,Common);\n        Common++;\n    }\n\n    function tokenURI(uint256 _tokenId) public view override returns (string memory){\n        string memory _tokenIdString = string(Strings.toString(_tokenId));\n        return string(abi.encodePacked(metadataURI, \"/\",_tokenIdString, \".json\"));\n    }\n}",
  "sourcePath": "/Users/allen/Documents/KGA_blockchain/TeamProject_CookieNFT/contracts/MintNft.sol",
  "compiler": {
    "name": "solc",
    "version": "0.8.17+commit.8df45f5f.Emscripten.clang"
  },
  "schemaVersion": "3.4.11",
  "updatedAt": "2022-12-26T15:53:30.251Z",
  "networkType": "ethereum",
  "devdoc": {
    "kind": "dev",
    "methods": {
      "approve(address,uint256)": {
        "details": "See {IERC721-approve}."
      },
      "balanceOf(address)": {
        "details": "See {IERC721-balanceOf}."
      },
      "getApproved(uint256)": {
        "details": "See {IERC721-getApproved}."
      },
      "isApprovedForAll(address,address)": {
        "details": "See {IERC721-isApprovedForAll}."
      },
      "name()": {
        "details": "See {IERC721Metadata-name}."
      },
      "owner()": {
        "details": "Returns the address of the current owner."
      },
      "ownerOf(uint256)": {
        "details": "See {IERC721-ownerOf}."
      },
      "renounceOwnership()": {
        "details": "Leaves the contract without owner. It will not be possible to call `onlyOwner` functions anymore. Can only be called by the current owner. NOTE: Renouncing ownership will leave the contract without an owner, thereby removing any functionality that is only available to the owner."
      },
      "safeTransferFrom(address,address,uint256)": {
        "details": "See {IERC721-safeTransferFrom}."
      },
      "safeTransferFrom(address,address,uint256,bytes)": {
        "details": "See {IERC721-safeTransferFrom}."
      },
      "setApprovalForAll(address,bool)": {
        "details": "See {IERC721-setApprovalForAll}."
      },
      "supportsInterface(bytes4)": {
        "details": "See {IERC165-supportsInterface}."
      },
      "symbol()": {
        "details": "See {IERC721Metadata-symbol}."
      },
      "tokenByIndex(uint256)": {
        "details": "See {IERC721Enumerable-tokenByIndex}."
      },
      "tokenOfOwnerByIndex(address,uint256)": {
        "details": "See {IERC721Enumerable-tokenOfOwnerByIndex}."
      },
      "totalSupply()": {
        "details": "See {IERC721Enumerable-totalSupply}."
      },
      "transferFrom(address,address,uint256)": {
        "details": "See {IERC721-transferFrom}."
      },
      "transferOwnership(address)": {
        "details": "Transfers ownership of the contract to a new account (`newOwner`). Can only be called by the current owner."
      }
    },
    "version": 1
  },
  "userdoc": {
    "kind": "user",
    "methods": {},
    "version": 1
  }
}