{
  "contractName": "SaleNft",
  "abi": [
    {
      "inputs": [
        {
          "internalType": "address",
          "name": "_tokenAddress",
          "type": "address"
        },
        {
          "internalType": "address",
          "name": "_mintAddress",
          "type": "address"
        }
      ],
      "stateMutability": "nonpayable",
      "type": "constructor"
    },
    {
      "inputs": [
        {
          "internalType": "uint256",
          "name": "",
          "type": "uint256"
        }
      ],
      "name": "SellNftList",
      "outputs": [
        {
          "internalType": "uint256",
          "name": "",
          "type": "uint256"
        }
      ],
      "stateMutability": "view",
      "type": "function"
    },
    {
      "inputs": [],
      "name": "cookieT",
      "outputs": [
        {
          "internalType": "contract CookieToken",
          "name": "",
          "type": "address"
        }
      ],
      "stateMutability": "view",
      "type": "function"
    },
    {
      "inputs": [],
      "name": "minting",
      "outputs": [
        {
          "internalType": "contract MintNft",
          "name": "",
          "type": "address"
        }
      ],
      "stateMutability": "view",
      "type": "function"
    },
    {
      "inputs": [
        {
          "internalType": "uint256",
          "name": "",
          "type": "uint256"
        }
      ],
      "name": "nftPrices",
      "outputs": [
        {
          "internalType": "uint256",
          "name": "",
          "type": "uint256"
        }
      ],
      "stateMutability": "view",
      "type": "function"
    },
    {
      "inputs": [
        {
          "internalType": "uint256",
          "name": "_nftId",
          "type": "uint256"
        },
        {
          "internalType": "uint256",
          "name": "_price",
          "type": "uint256"
        }
      ],
      "name": "sellNft",
      "outputs": [],
      "stateMutability": "nonpayable",
      "type": "function"
    },
    {
      "inputs": [
        {
          "internalType": "uint256",
          "name": "_nftId",
          "type": "uint256"
        }
      ],
      "name": "buyNft",
      "outputs": [],
      "stateMutability": "nonpayable",
      "type": "function"
    },
    {
      "inputs": [],
      "name": "getSellNftList",
      "outputs": [
        {
          "internalType": "uint256[]",
          "name": "",
          "type": "uint256[]"
        }
      ],
      "stateMutability": "view",
      "type": "function"
    }
  ],
  "bytecode": "0x60806040523480156200001157600080fd5b50604051620010f6380380620010f683398181016040528101906200003791906200012a565b81600160006101000a81548173ffffffffffffffffffffffffffffffffffffffff021916908373ffffffffffffffffffffffffffffffffffffffff160217905550806000806101000a81548173ffffffffffffffffffffffffffffffffffffffff021916908373ffffffffffffffffffffffffffffffffffffffff160217905550505062000171565b600080fd5b600073ffffffffffffffffffffffffffffffffffffffff82169050919050565b6000620000f282620000c5565b9050919050565b6200010481620000e5565b81146200011057600080fd5b50565b6000815190506200012481620000f9565b92915050565b60008060408385031215620001445762000143620000c0565b5b6000620001548582860162000113565b9250506020620001678582860162000113565b9150509250929050565b610f7580620001816000396000f3fe608060405234801561001057600080fd5b506004361061007c5760003560e01c80635208eb091161005b5780635208eb09146100eb5780637dc2268c146101075780639e0ea92114610125578063d9f10a2b146101435761007c565b80628b96a114610081578063243adbdd146100b15780633337f6f2146100cd575b600080fd5b61009b600480360381019061009691906109aa565b610173565b6040516100a891906109e6565b60405180910390f35b6100cb60048036038101906100c691906109aa565b610197565b005b6100d5610569565b6040516100e29190610a80565b60405180910390f35b61010560048036038101906101009190610a9b565b61058f565b005b61010f6107ff565b60405161011c9190610afc565b60405180910390f35b61012d610823565b60405161013a9190610bd5565b60405180910390f35b61015d600480360381019061015891906109aa565b61087b565b60405161016a91906109e6565b60405180910390f35b6002818154811061018357600080fd5b906000526020600020016000915090505481565b60008060009054906101000a900473ffffffffffffffffffffffffffffffffffffffff1673ffffffffffffffffffffffffffffffffffffffff16636352211e836040518263ffffffff1660e01b81526004016101f391906109e6565b602060405180830381865afa158015610210573d6000803e3d6000fd5b505050506040513d601f19601f820116820180604052508101906102349190610c35565b90503373ffffffffffffffffffffffffffffffffffffffff168173ffffffffffffffffffffffffffffffffffffffff160361026e57600080fd5b600060036000848152602001908152602001600020541161028e57600080fd5b600160009054906101000a900473ffffffffffffffffffffffffffffffffffffffff1673ffffffffffffffffffffffffffffffffffffffff166370a08231826040518263ffffffff1660e01b81526004016102e99190610c71565b602060405180830381865afa158015610306573d6000803e3d6000fd5b505050506040513d601f19601f8201168201806040525081019061032a9190610ca1565b6003600084815260200190815260200160002054111561034957600080fd5b600160009054906101000a900473ffffffffffffffffffffffffffffffffffffffff1673ffffffffffffffffffffffffffffffffffffffff1663095ea7b33060036000868152602001908152602001600020546040518363ffffffff1660e01b81526004016103b9929190610cce565b6020604051808303816000875af11580156103d8573d6000803e3d6000fd5b505050506040513d601f19601f820116820180604052508101906103fc9190610d2f565b50600160009054906101000a900473ffffffffffffffffffffffffffffffffffffffff1673ffffffffffffffffffffffffffffffffffffffff166323b872dd338360036000878152602001908152602001600020546040518463ffffffff1660e01b815260040161046f93929190610d5c565b6020604051808303816000875af115801561048e573d6000803e3d6000fd5b505050506040513d601f19601f820116820180604052508101906104b29190610d2f565b5060008054906101000a900473ffffffffffffffffffffffffffffffffffffffff1673ffffffffffffffffffffffffffffffffffffffff166342842e0e8233856040518463ffffffff1660e01b815260040161051093929190610d5c565b600060405180830381600087803b15801561052a57600080fd5b505af115801561053e573d6000803e3d6000fd5b505050506000600360008481526020019081526020016000208190555061056482610893565b505050565b600160009054906101000a900473ffffffffffffffffffffffffffffffffffffffff1681565b60008060009054906101000a900473ffffffffffffffffffffffffffffffffffffffff1673ffffffffffffffffffffffffffffffffffffffff16636352211e846040518263ffffffff1660e01b81526004016105eb91906109e6565b602060405180830381865afa158015610608573d6000803e3d6000fd5b505050506040513d601f19601f8201168201806040525081019061062c9190610c35565b90503373ffffffffffffffffffffffffffffffffffffffff168173ffffffffffffffffffffffffffffffffffffffff161461066657600080fd5b8160001061067357600080fd5b60008054906101000a900473ffffffffffffffffffffffffffffffffffffffff1673ffffffffffffffffffffffffffffffffffffffff1663a22cb4653060016040518363ffffffff1660e01b81526004016106cf929190610da2565b600060405180830381600087803b1580156106e957600080fd5b505af11580156106fd573d6000803e3d6000fd5b5050505060008054906101000a900473ffffffffffffffffffffffffffffffffffffffff1673ffffffffffffffffffffffffffffffffffffffff1663e985e9c533306040518363ffffffff1660e01b815260040161075c929190610dcb565b602060405180830381865afa158015610779573d6000803e3d6000fd5b505050506040513d601f19601f8201168201806040525081019061079d9190610d2f565b6107a657600080fd5b670de0b6b3a7640000826107ba9190610e23565b60036000858152602001908152602001600020819055506002839080600181540180825580915050600190039060005260206000200160009091909190915055505050565b60008054906101000a900473ffffffffffffffffffffffffffffffffffffffff1681565b6060600280548060200260200160405190810160405280929190818152602001828054801561087157602002820191906000526020600020905b81548152602001906001019080831161085d575b5050505050905090565b60036020528060005260406000206000915090505481565b600080600090505b6002805490508110156109645782600282815481106108bd576108bc610e65565b5b90600052602060002001540361095157600260016002805490506108e19190610e94565b815481106108f2576108f1610e65565b5b90600052602060002001546002828154811061091157610910610e65565b5b9060005260206000200181905550600280548061093157610930610ec8565b5b60019003818190600052602060002001600090559055600191505061096a565b808061095c90610ef7565b91505061089b565b50600090505b919050565b600080fd5b6000819050919050565b61098781610974565b811461099257600080fd5b50565b6000813590506109a48161097e565b92915050565b6000602082840312156109c0576109bf61096f565b5b60006109ce84828501610995565b91505092915050565b6109e081610974565b82525050565b60006020820190506109fb60008301846109d7565b92915050565b600073ffffffffffffffffffffffffffffffffffffffff82169050919050565b6000819050919050565b6000610a46610a41610a3c84610a01565b610a21565b610a01565b9050919050565b6000610a5882610a2b565b9050919050565b6000610a6a82610a4d565b9050919050565b610a7a81610a5f565b82525050565b6000602082019050610a956000830184610a71565b92915050565b60008060408385031215610ab257610ab161096f565b5b6000610ac085828601610995565b9250506020610ad185828601610995565b9150509250929050565b6000610ae682610a4d565b9050919050565b610af681610adb565b82525050565b6000602082019050610b116000830184610aed565b92915050565b600081519050919050565b600082825260208201905092915050565b6000819050602082019050919050565b610b4c81610974565b82525050565b6000610b5e8383610b43565b60208301905092915050565b6000602082019050919050565b6000610b8282610b17565b610b8c8185610b22565b9350610b9783610b33565b8060005b83811015610bc8578151610baf8882610b52565b9750610bba83610b6a565b925050600181019050610b9b565b5085935050505092915050565b60006020820190508181036000830152610bef8184610b77565b905092915050565b6000610c0282610a01565b9050919050565b610c1281610bf7565b8114610c1d57600080fd5b50565b600081519050610c2f81610c09565b92915050565b600060208284031215610c4b57610c4a61096f565b5b6000610c5984828501610c20565b91505092915050565b610c6b81610bf7565b82525050565b6000602082019050610c866000830184610c62565b92915050565b600081519050610c9b8161097e565b92915050565b600060208284031215610cb757610cb661096f565b5b6000610cc584828501610c8c565b91505092915050565b6000604082019050610ce36000830185610c62565b610cf060208301846109d7565b9392505050565b60008115159050919050565b610d0c81610cf7565b8114610d1757600080fd5b50565b600081519050610d2981610d03565b92915050565b600060208284031215610d4557610d4461096f565b5b6000610d5384828501610d1a565b91505092915050565b6000606082019050610d716000830186610c62565b610d7e6020830185610c62565b610d8b60408301846109d7565b949350505050565b610d9c81610cf7565b82525050565b6000604082019050610db76000830185610c62565b610dc46020830184610d93565b9392505050565b6000604082019050610de06000830185610c62565b610ded6020830184610c62565b9392505050565b7f4e487b7100000000000000000000000000000000000000000000000000000000600052601160045260246000fd5b6000610e2e82610974565b9150610e3983610974565b9250828202610e4781610974565b91508282048414831517610e5e57610e5d610df4565b5b5092915050565b7f4e487b7100000000000000000000000000000000000000000000000000000000600052603260045260246000fd5b6000610e9f82610974565b9150610eaa83610974565b9250828203905081811115610ec257610ec1610df4565b5b92915050565b7f4e487b7100000000000000000000000000000000000000000000000000000000600052603160045260246000fd5b6000610f0282610974565b91507fffffffffffffffffffffffffffffffffffffffffffffffffffffffffffffffff8203610f3457610f33610df4565b5b60018201905091905056fea2646970667358221220df10e6d7af8303a9c00e4fb5cc30e6a8b580e572c79189a2fd8f9e60f37eb78f64736f6c63430008110033",
  "immutableReferences": {},
  "source": "// SPDX-License-Identifier: MIT\npragma solidity ^0.8.17;\n\n// import \"openzeppelin-solidity/contracts/token/ERC721/extensions/ERC721Enumerable.sol\";\nimport \"./MintNft.sol\";\nimport \"./CookieToken.sol\";\n\ncontract SaleNft {\n    MintNft public minting;\n    CookieToken public cookieT;\n\n    constructor(address _tokenAddress, address _mintAddress) {\n        cookieT = CookieToken(_tokenAddress);\n        minting = MintNft(_mintAddress);\n    }\n\n    //  NFT     \n    uint[] public SellNftList;\n\n    // token  => price( )\n    mapping (uint => uint) public nftPrices;\n\n    struct CookieCard {\n        uint nftId;\n        uint price;\n    }\n\n\n    // nft   \n    function sellNft(uint _nftId, uint _price) public {\n        address nftOwner = minting.ownerOf(_nftId);\n        require(nftOwner == msg.sender);\n        require(0 < _price);\n        minting.setApprovalForAll(address(this), true);\n        require(minting.isApprovedForAll(msg.sender, address(this)));\n        nftPrices[_nftId] = _price * (10 ** 18);\n        SellNftList.push(_nftId);\n    }\n\n    // nft  \n    function buyNft(uint _nftId) public {\n        address nftOwner = minting.ownerOf(_nftId); //   \n        require(nftOwner != msg.sender);\n        require(nftPrices[_nftId] > 0);\n        require(nftPrices[_nftId] <= cookieT.balanceOf(nftOwner));\n        cookieT.approve(address(this), nftPrices[_nftId]);\n        cookieT.transferFrom(msg.sender, nftOwner, nftPrices[_nftId]);\n        minting.safeTransferFrom(nftOwner, msg.sender, _nftId);\n        nftPrices[_nftId] = 0;\n        removeNftList(_nftId);\n    }\n\n    //    \n    function removeNftList(uint _nftId) private returns(bool) {\n        for(uint256 i = 0; i < SellNftList.length; i++){\n            if(SellNftList[i] == _nftId){\n                SellNftList[i] = SellNftList[SellNftList.length -1];\n                SellNftList.pop();\n                return true;\n            }\n        }\n            return false;\n    }\n\n    //    \n    function getSellNftList() public view returns (uint[] memory) {\n        return SellNftList;\n    }\n}",
  "sourcePath": "/Users/allen/Documents/KGA_blockchain/TeamProject_CookieNFT/contracts/SaleNft.sol",
  "compiler": {
    "name": "solc",
    "version": "0.8.17+commit.8df45f5f.Emscripten.clang"
  },
  "schemaVersion": "3.4.11",
  "updatedAt": "2022-12-26T15:51:15.173Z",
  "devdoc": {
    "kind": "dev",
    "methods": {},
    "version": 1
  },
  "userdoc": {
    "kind": "user",
    "methods": {},
    "version": 1
  }
}